{
  "contractName": "Game",
  "abi": [
    {
      "constant": true,
      "inputs": [],
      "name": "entryFee",
      "outputs": [
        {
          "name": "",
          "type": "uint256"
        }
      ],
      "payable": false,
      "stateMutability": "view",
      "type": "function"
    },
    {
      "constant": true,
      "inputs": [],
      "name": "listQuestions",
      "outputs": [
        {
          "name": "",
          "type": "string"
        }
      ],
      "payable": false,
      "stateMutability": "view",
      "type": "function"
    },
    {
      "constant": true,
      "inputs": [
        {
          "name": "",
          "type": "uint256"
        }
      ],
      "name": "arrayHashedAnswers",
      "outputs": [
        {
          "name": "",
          "type": "string"
        }
      ],
      "payable": false,
      "stateMutability": "view",
      "type": "function"
    },
    {
      "constant": true,
      "inputs": [
        {
          "name": "",
          "type": "address"
        }
      ],
      "name": "getNumFromAddress",
      "outputs": [
        {
          "name": "",
          "type": "uint8"
        }
      ],
      "payable": false,
      "stateMutability": "view",
      "type": "function"
    },
    {
      "constant": true,
      "inputs": [
        {
          "name": "",
          "type": "uint8"
        }
      ],
      "name": "rounds",
      "outputs": [
        {
          "name": "question",
          "type": "string"
        },
        {
          "name": "answer",
          "type": "string"
        },
        {
          "name": "roundStarted",
          "type": "bool"
        },
        {
          "name": "roundComplete",
          "type": "bool"
        }
      ],
      "payable": false,
      "stateMutability": "view",
      "type": "function"
    },
    {
      "constant": true,
      "inputs": [],
      "name": "registrationOpen",
      "outputs": [
        {
          "name": "",
          "type": "bool"
        }
      ],
      "payable": false,
      "stateMutability": "view",
      "type": "function"
    },
    {
      "constant": true,
      "inputs": [],
      "name": "currentAnswer",
      "outputs": [
        {
          "name": "",
          "type": "string"
        }
      ],
      "payable": false,
      "stateMutability": "view",
      "type": "function"
    },
    {
      "constant": true,
      "inputs": [],
      "name": "currentRound",
      "outputs": [
        {
          "name": "",
          "type": "uint8"
        }
      ],
      "payable": false,
      "stateMutability": "view",
      "type": "function"
    },
    {
      "constant": true,
      "inputs": [],
      "name": "owner",
      "outputs": [
        {
          "name": "",
          "type": "address"
        }
      ],
      "payable": false,
      "stateMutability": "view",
      "type": "function"
    },
    {
      "constant": true,
      "inputs": [],
      "name": "numPlayers",
      "outputs": [
        {
          "name": "",
          "type": "uint8"
        }
      ],
      "payable": false,
      "stateMutability": "view",
      "type": "function"
    },
    {
      "constant": true,
      "inputs": [],
      "name": "numRounds",
      "outputs": [
        {
          "name": "",
          "type": "uint256"
        }
      ],
      "payable": false,
      "stateMutability": "view",
      "type": "function"
    },
    {
      "constant": true,
      "inputs": [
        {
          "name": "",
          "type": "uint8"
        }
      ],
      "name": "players",
      "outputs": [
        {
          "name": "playerName",
          "type": "string"
        },
        {
          "name": "hasGuessed",
          "type": "bool"
        },
        {
          "name": "isRegistered",
          "type": "bool"
        },
        {
          "name": "guess",
          "type": "string"
        },
        {
          "name": "playerAddress",
          "type": "address"
        },
        {
          "name": "score",
          "type": "uint8"
        },
        {
          "name": "winnings",
          "type": "uint256"
        }
      ],
      "payable": false,
      "stateMutability": "view",
      "type": "function"
    },
    {
      "constant": true,
      "inputs": [],
      "name": "grandPrize",
      "outputs": [
        {
          "name": "",
          "type": "uint256"
        }
      ],
      "payable": false,
      "stateMutability": "view",
      "type": "function"
    },
    {
      "constant": true,
      "inputs": [],
      "name": "winnerName",
      "outputs": [
        {
          "name": "",
          "type": "string"
        }
      ],
      "payable": false,
      "stateMutability": "view",
      "type": "function"
    },
    {
      "constant": true,
      "inputs": [],
      "name": "currentQuestion",
      "outputs": [
        {
          "name": "",
          "type": "string"
        }
      ],
      "payable": false,
      "stateMutability": "view",
      "type": "function"
    },
    {
      "constant": true,
      "inputs": [],
      "name": "listHashedAnswers",
      "outputs": [
        {
          "name": "",
          "type": "string"
        }
      ],
      "payable": false,
      "stateMutability": "view",
      "type": "function"
    },
    {
      "constant": true,
      "inputs": [
        {
          "name": "",
          "type": "uint256"
        }
      ],
      "name": "arrayQuestions",
      "outputs": [
        {
          "name": "",
          "type": "string"
        }
      ],
      "payable": false,
      "stateMutability": "view",
      "type": "function"
    },
    {
      "inputs": [
        {
          "name": "_owner",
          "type": "address"
        },
        {
          "name": "_entryFee",
          "type": "uint256"
        },
        {
          "name": "_listQuestions",
          "type": "string"
        },
        {
          "name": "_listHashedAnswers",
          "type": "string"
        }
      ],
      "payable": false,
      "stateMutability": "nonpayable",
      "type": "constructor"
    },
    {
      "constant": false,
      "inputs": [
        {
          "name": "_entryFeeInFinney",
          "type": "uint256"
        }
      ],
      "name": "newGame",
      "outputs": [],
      "payable": false,
      "stateMutability": "nonpayable",
      "type": "function"
    },
    {
      "constant": false,
      "inputs": [
        {
          "name": "_questions",
          "type": "string"
        },
        {
          "name": "_answers",
          "type": "string"
        }
      ],
      "name": "setQuestions",
      "outputs": [],
      "payable": false,
      "stateMutability": "nonpayable",
      "type": "function"
    },
    {
      "constant": false,
      "inputs": [
        {
          "name": "_playerName",
          "type": "string"
        }
      ],
      "name": "register",
      "outputs": [],
      "payable": true,
      "stateMutability": "payable",
      "type": "function"
    },
    {
      "constant": false,
      "inputs": [],
      "name": "startGame",
      "outputs": [],
      "payable": false,
      "stateMutability": "nonpayable",
      "type": "function"
    },
    {
      "constant": false,
      "inputs": [],
      "name": "forceNewRound",
      "outputs": [],
      "payable": false,
      "stateMutability": "nonpayable",
      "type": "function"
    },
    {
      "constant": false,
      "inputs": [
        {
          "name": "_guess",
          "type": "string"
        }
      ],
      "name": "guess",
      "outputs": [],
      "payable": false,
      "stateMutability": "nonpayable",
      "type": "function"
    },
    {
      "constant": false,
      "inputs": [],
      "name": "endGame",
      "outputs": [],
      "payable": false,
      "stateMutability": "nonpayable",
      "type": "function"
    },
    {
      "constant": false,
      "inputs": [],
      "name": "withdrawWinnings",
      "outputs": [],
      "payable": false,
      "stateMutability": "nonpayable",
      "type": "function"
    },
    {
      "constant": false,
      "inputs": [],
      "name": "reset",
      "outputs": [],
      "payable": false,
      "stateMutability": "nonpayable",
      "type": "function"
    }
  ],
  "bytecode": "0x60806040523480156200001157600080fd5b5060405162001d1938038062001d19833981016040908152815160208084015192840151606085015160058054600160a060020a031916600160a060020a0386161790556004859055908501805193959093910191620000779160029185019062000098565b5080516200008d90600390602084019062000098565b50505050506200013d565b828054600181600116156101000203166002900490600052602060002090601f016020900481019282601f10620000db57805160ff19168380011785556200010b565b828001600101855582156200010b579182015b828111156200010b578251825591602001919060010190620000ee565b50620001199291506200011d565b5090565b6200013a91905b8082111562000119576000815560010162000124565b90565b611bcc806200014d6000396000f3006080604052600436106101535763ffffffff7c0100000000000000000000000000000000000000000000000000000000600035041663072ea61c81146101585780632503059e1461017f5780634b3055de146102095780634eee59b31461022157806356f585381461027c5780635d7984d3146102b35780636cbc2ded146103be578063736f88cd146103d35780637e1b4cb0146103fc5780638a19c8bc146104115780638da5cb5b146104265780639140bd711461045757806397b2f556146104ee5780639d78325d14610503578063af155a4414610518578063cc42e83a14610654578063cde9ef7814610669578063ce76c5ca14610681578063d65ab5f214610696578063d826f88f146106ab578063e2ba53f0146106c0578063e4fc0d7f146106d5578063e7dea022146106ea578063eac046b0146106ff578063eb314eb114610714578063f2c298be1461072c575b600080fd5b34801561016457600080fd5b5061016d610778565b60408051918252519081900360200190f35b34801561018b57600080fd5b5061019461077e565b6040805160208082528351818301528351919283929083019185019080838360005b838110156101ce5781810151838201526020016101b6565b50505050905090810190601f1680156101fb5780820380516001836020036101000a031916815260200191505b509250505060405180910390f35b34801561021557600080fd5b50610194600435610809565b34801561022d57600080fd5b506040805160206004803580820135601f810184900484028501840190955284845261027a94369492936024939284019190819084018382808284375094975061087d9650505050505050565b005b34801561028857600080fd5b5061029d600160a060020a0360043516610ae2565b6040805160ff9092168252519081900360200190f35b3480156102bf57600080fd5b506102ce60ff60043516610af7565b6040805183151591810191909152811515606082015260808082528551908201528451819060208083019160a084019189019080838360005b8381101561031f578181015183820152602001610307565b50505050905090810190601f16801561034c5780820380516001836020036101000a031916815260200191505b50838103825286518152865160209182019188019080838360005b8381101561037f578181015183820152602001610367565b50505050905090810190601f1680156103ac5780820380516001836020036101000a031916815260200191505b50965050505050505060405180910390f35b3480156103ca57600080fd5b5061027a610c48565b3480156103df57600080fd5b506103e8610d57565b604080519115158252519081900360200190f35b34801561040857600080fd5b50610194610d60565b34801561041d57600080fd5b5061029d610dbb565b34801561043257600080fd5b5061043b610dc4565b60408051600160a060020a039092168252519081900360200190f35b34801561046357600080fd5b506040805160206004803580820135601f810184900484028501840190955284845261027a94369492936024939284019190819084018382808284375050604080516020601f89358b018035918201839004830284018301909452808352979a999881019791965091820194509250829150840183828082843750949750610dd39650505050505050565b3480156104fa57600080fd5b5061029d610f0f565b34801561050f57600080fd5b5061016d610f1d565b34801561052457600080fd5b5061053360ff60043516610f23565b604051808060200188151515158152602001871515151581526020018060200186600160a060020a0316600160a060020a031681526020018560ff1660ff16815260200184815260200183810383528a818151815260200191508051906020019080838360005b838110156105b257818101518382015260200161059a565b50505050905090810190601f1680156105df5780820380516001836020036101000a031916815260200191505b50838103825287518152875160209182019189019080838360005b838110156106125781810151838201526020016105fa565b50505050905090810190601f16801561063f5780820380516001836020036101000a031916815260200191505b50995050505050505050505060405180910390f35b34801561066057600080fd5b5061027a61109b565b34801561067557600080fd5b5061027a600435611116565b34801561068d57600080fd5b5061016d6111e0565b3480156106a257600080fd5b5061027a6111e6565b3480156106b757600080fd5b5061027a611227565b3480156106cc57600080fd5b50610194611280565b3480156106e157600080fd5b5061027a6112db565b3480156106f657600080fd5b506101946112fe565b34801561070b57600080fd5b50610194611359565b34801561072057600080fd5b506101946004356113b4565b6040805160206004803580820135601f810184900484028501840190955284845261027a9436949293602493928401919081908401838280828437509497506113c29650505050505050565b60045481565b6002805460408051602060018416156101000260001901909316849004601f810184900484028201840190925281815292918301828280156108015780601f106107d657610100808354040283529160200191610801565b820191906000526020600020905b8154815290600101906020018083116107e457829003601f168201915b505050505081565b600e80548290811061081757fe5b600091825260209182902001805460408051601f60026000196101006001871615020190941693909304928301859004850281018501909152818152935090918301828280156108015780601f106107d657610100808354040283529160200191610801565b6000610888336114ed565b60ff8082166000908152602081905260409020600101549192506101009091041615156108b157fe5b60ff80821660009081526020819052604090206001015416156108d057fe5b60095460ff9081166000908152600f6020526040902060020154610100900416156108f757fe5b60095460ff9081166000908152600f602052604090206002015416151560011461091d57fe5b60ff81166000908152602081815260409091208351610944926002909201918501906119b9565b5060ff8082166000908152602081815260408083206001908101805460ff1916821790556009549094168352600f909152908190209051908201805490928291849160026000199183161561010002919091019091160480156109de5780601f106109bc5761010080835404028352918201916109de565b820191906000526020600020905b8154815290600101906020018083116109ca575b50509150506040518091039020600019166000808360ff1660ff1681526020019081526020016000206002016040518082805460018160011615610100020316600290048015610a655780601f10610a43576101008083540402835291820191610a65565b820191906000526020600020905b815481529060010190602001808311610a51575b50509150506040518091039020600019161415610ade5760ff8181166000908152602081905260409020600301805474ff00000000000000000000000000000000000000001981167401000000000000000000000000000000000000000091829004841660010190931602919091179055610ade61150b565b5050565b60016020526000908152604090205460ff1681565b600f6020908152600091825260409182902080548351601f60026000196101006001861615020190931692909204918201849004840281018401909452808452909291839190830182828015610b8e5780601f10610b6357610100808354040283529160200191610b8e565b820191906000526020600020905b815481529060010190602001808311610b7157829003601f168201915b505050505090806001018054600181600116156101000203166002900480601f016020809104026020016040519081016040528092919081815260200182805460018160011615610100020316600290048015610c2c5780601f10610c0157610100808354040283529160200191610c2c565b820191906000526020600020905b815481529060010190602001808311610c0f57829003601f168201915b5050506002909301549192505060ff8082169161010090041684565b6005546000908190819033600160a060020a03908116911614610c6a57600080fd5b60009250600091505b60095460ff61010090910481169083161015610d055760ff828116600090815260208190526040902060030154818516740100000000000000000000000000000000000000009091049091161115610cfa575060ff808216600090815260208190526040902060030154740100000000000000000000000000000000000000009004169150805b600190910190610c73565b60ff811660009081526020819052604090208054610d3891600c9160026000196101006001841615020190911604611a37565b5060085460ff9091166000908152602081905260409020600401555050565b600b5460ff1681565b6006805460408051602060026001851615610100026000190190941693909304601f810184900484028201840190925281815292918301828280156108015780601f106107d657610100808354040283529160200191610801565b60095460ff1681565b600554600160a060020a031681565b60055460009033600160a060020a03908116911614610df157600080fd5b610e30836040805190810160405280600181526020017f3b000000000000000000000000000000000000000000000000000000000000008152506115fa565b8051610e4491600d91602090910190611aac565b50610e84826040805190810160405280600181526020017f3b000000000000000000000000000000000000000000000000000000000000008152506115fa565b8051610e9891600e91602090910190611aac565b5050600d5460001901600a5560005b600a548160ff161015610f0a57600d805460ff8316908110610ec557fe5b6000918252602080832060ff85168452600f909152604090922091018054610f0192919060026000196101006001841615020190911604611a37565b50600101610ea7565b505050565b600954610100900460ff1681565b600a5481565b6000602081815291815260409081902080548251601f600260001961010060018616150201909316929092049182018590048502810185019093528083529092839190830182828015610fb75780601f10610f8c57610100808354040283529160200191610fb7565b820191906000526020600020905b815481529060010190602001808311610f9a57829003601f168201915b50505050600183810154600280860180546040805160206101009784161588026000190190931694909404601f8101839004830285018301909152808452969760ff808616989690950490941695509293919290919083018282801561105e5780601f106110335761010080835404028352916020019161105e565b820191906000526020600020905b81548152906001019060200180831161104157829003601f168201915b5050505060038301546004909301549192600160a060020a038116927401000000000000000000000000000000000000000090910460ff16915087565b6000806110a7336114ed565b60ff811660009081526020819052604081206004015491935090915081116110cb57fe5b60ff821660009081526020819052604080822060040182905551600160a060020a0333169183156108fc02918491818181858888f19350505050158015610f0a573d6000803e3d6000fd5b60055460009033600160a060020a0390811691161461113457600080fd5b5066038d7ea4c68000810260045560098054600b805460ff191660011790556000600881905561ffff19909116909155600a8190555b600a548160ff161015610ade5760ff81166000908152602081905260408120906111948282611b05565b60018201805461ffff191690556111af600283016000611b05565b5060038101805474ffffffffffffffffffffffffffffffffffffffffff19169055600060049091015560010161116a565b60085481565b60055433600160a060020a0390811691161461120157600080fd5b600b805460ff19169055600454600954610100900460ff16026008556112256116bc565b565b60055433600160a060020a0390811691161461124257600080fd5b600554604051600160a060020a039182169130163180156108fc02916000818181858888f1935050505015801561127d573d6000803e3d6000fd5b50565b600c805460408051602060026001851615610100026000190190941693909304601f810184900484028201840190925281815292918301828280156108015780601f106107d657610100808354040283529160200191610801565b60055433600160a060020a039081169116146112f657600080fd5b6112256116bc565b6007805460408051602060026001851615610100026000190190941693909304601f810184900484028201840190925281815292918301828280156108015780601f106107d657610100808354040283529160200191610801565b6003805460408051602060026001851615610100026000190190941693909304601f810184900484028201840190925281815292918301828280156108015780601f106107d657610100808354040283529160200191610801565b600d80548290811061081757fe5b600060045434101580156113d85750600b5460ff165b15156113e057fe5b600954610100900460ff166000908152602081815260409091208351611408928501906119b9565b50506009805460ff6101009182900481166000908152602081815260408083206003018054600160a060020a03331673ffffffffffffffffffffffffffffffffffffffff1990911681179091558654869004851684528184206001908101805461ff00199081168917909155885492865293819052918420805460ff1916918790048616919091179055855485810485169091019093169093029190921617909155600454340390811115610ade57604051600160a060020a0333169082156108fc029083906000818181858888f19350505050158015610f0a573d6000803e3d6000fd5b600160a060020a031660009081526001602052604090205460ff1690565b6009805460ff9081166000908152600f60205260408082206002908101805461010061ff001990911681179091559454909316825281206001908101805492946115679460069492938316159091026000190190911604611a37565b50600090505b60095460ff610100909104811690821610156115d05760ff811660008181526020818152604080832060018101805460ff191690558151808401928390528481529484529290915291516115c792600290920191906119b9565b5060010161156d565b6009805460ff198116600160ff9283160182161791829055600a5491161061127d5761127d610c48565b6060611604611b49565b61160c611b49565b60006116178661174b565b92506116228561174b565b9150611634838363ffffffff61177116565b60010160405190808252806020026020018201604052801561166a57816020015b60608152602001906001900390816116555790505b509350600090505b83518110156116b35761169361168e848463ffffffff6117de16565b6117f1565b84828151811015156116a157fe5b60209081029091010152600101611672565b50505092915050565b60055433600160a060020a039081169116146116d757600080fd5b6009805460ff9081166000908152600f60205260408082206002908101805460ff19166001908117909155945490931682529020805461172c9360079360001991831615610100029190910190911604611a37565b5060408051602081019182905260009081905261127d916006916119b9565b611753611b49565b50604080518082019091528151815260209182019181019190915290565b60008082600001516117958560000151866020015186600001518760200151611844565b0190505b835160208501510181116117d75782516020808601518651918601516001909501946117cf929185039091039084908490611844565b019050611799565b5092915050565b6117e6611b49565b6117d7838383611904565b606080600083600001516040519080825280601f01601f191660200182016040528015611828578160200160208202803883390190505b5091506020820190506117d78185602001518660000151611975565b600083818080808080808c8b116118ee5760208b116118b75760018b60200360080260020a03196001029550858a511694508a8d8d010393508588511692505b8285146118af5783881061189c578c8c0198506118f4565b8780600101985050858851169250611884565b8798506118f4565b8a8a209150600096505b8a8d0387116118ee5750898720818114156118de578798506118f4565b60019788019796909601956118c1565b8c8c0198505b5050505050505050949350505050565b61190c611b49565b600061192a8560000151866020015186600001518760200151611844565b60208087018051918601919091528051820385528651905191925001811415611956576000855261196c565b8351835186519101900385528351810160208601525b50909392505050565b60005b6020821061199a578251845260209384019390920191601f1990910190611978565b50905182516020929092036101000a6000190180199091169116179052565b828054600181600116156101000203166002900490600052602060002090601f016020900481019282601f106119fa57805160ff1916838001178555611a27565b82800160010185558215611a27579182015b82811115611a27578251825591602001919060010190611a0c565b50611a33929150611b60565b5090565b828054600181600116156101000203166002900490600052602060002090601f016020900481019282601f10611a705780548555611a27565b82800160010185558215611a2757600052602060002091601f016020900482015b82811115611a27578254825591600101919060010190611a91565b828054828255906000526020600020908101928215611af9579160200282015b82811115611af95782518051611ae99184916020909101906119b9565b5091602001919060010190611acc565b50611a33929150611b7d565b50805460018160011615610100020316600290046000825580601f10611b2b575061127d565b601f01602090049060005260206000209081019061127d9190611b60565b604080518082019091526000808252602082015290565b611b7a91905b80821115611a335760008155600101611b66565b90565b611b7a91905b80821115611a33576000611b978282611b05565b50600101611b835600a165627a7a72305820852e3f00d60abeb25f1a72a7d8b3f335f63c59d46c7d2860946850af592a33a30029",
  "source": "pragma solidity ^0.4.21;\n\nimport './strings.sol';\n\n\ncontract GameFactory{\n\n//TO-DO: Checks equal number questions answers\n\naddress[] public contracts;\naddress public owner = msg.sender;\n\nfunction createGame(\n  uint entryFee,\n  string listQuestions,\n  string listHashedAnswers\n  )\n  public\n  returns(address newContract)\n  {\n\n  Game g = new Game(msg.sender, entryFee, listQuestions, listHashedAnswers);\n  contracts.push(g);\n  return g;\n  }\n}\n\ncontract Game{\n\nusing strings for *; //Arachnid library declaration\n\nstruct Player {\n    string playerName;\n    bool hasGuessed;\n    bool isRegistered;\n    string guess;\n    address playerAddress;\n    uint8 score;\n    uint winnings;\n}\n\nstruct Rounds {\n    string question;\n    string answer;\n    bool roundStarted;\n    bool roundComplete;\n}\n\n//bi-directional mapping, since solidity is not great with arrays\nmapping(uint8 => Player) public players;\nmapping(address => uint8) public getNumFromAddress;\n\n//Game input data, set in constructor\n//Change listQuestions to PRIVATE!!!\nstring public listQuestions;\nstring public listHashedAnswers;\nuint public entryFee;\naddress public owner;\n\nstring public currentAnswer;\nstring public currentQuestion;\nuint public grandPrize;\nuint8 public currentRound;\nuint8 public numPlayers;\nuint public numRounds;\nbool public registrationOpen;\nstring public winnerName;\n\n//Make private before deploying\nstring[] public arrayQuestions;\nstring[] public arrayHashedAnswers;\nmapping(uint8 => Rounds) public rounds;\n\nconstructor(address _owner, uint _entryFee, string _listQuestions, string _listHashedAnswers) public {\n  owner = _owner;\n  entryFee = _entryFee;\n  listQuestions = _listQuestions;\n  listHashedAnswers = _listHashedAnswers;\n}\n\nmodifier onlyOwner() {\n    require(msg.sender == owner);\n    _;\n}\n\nfunction convertStringToArray(string inputString, string deliminator) private returns(string[] parts){\n    var s = inputString.toSlice();\n    var delim = deliminator.toSlice();\n    parts = new string[](s.count(delim) + 1);\n    for(uint i = 0; i < parts.length; i++) {\n        parts[i] = s.split(delim).toString();\n    }\n}\n\n/// Create a new game with $(_entryFee) (finney) registration fee\nfunction newGame(uint _entryFeeInFinney) onlyOwner public {\n    entryFee = _entryFeeInFinney * 1e15; //convert from finney to wei\n\n    //reset round data\n    currentRound = 0;\n    registrationOpen = true;\n    grandPrize = 0;\n    numPlayers = 0;\n    numRounds = 0;\n\n    //reset registration (cannot delete a mapping, must delete each element)\n    for (uint8 y = 0; y < numRounds; y++){delete players[y];}\n}\n\n/// Set the questions and answers\nfunction setQuestions(string _questions, string _answers) onlyOwner public {\n    arrayQuestions = convertStringToArray(_questions, \";\");\n    arrayHashedAnswers = convertStringToArray(_answers, \";\");\n    numRounds = arrayQuestions.length-1;\n    for (uint8 y = 0; y < numRounds; y++){\n        rounds[y].question = arrayQuestions[y];\n        }\n}\n\n/// Register using your name and pay the entry fee\nfunction register(string _playerName) payable public {\n    //Check that registration is open\n    assert(msg.value >= entryFee && registrationOpen);\n    // The first player is player 0\n    players[numPlayers].playerName = _playerName;\n    players[numPlayers].playerAddress = msg.sender;\n    players[numPlayers].isRegistered = true;\n\n    // Create lookup of player's number using their address\n    getNumFromAddress[msg.sender] = numPlayers;\n    numPlayers++;\n\n    // Return funds if the player overpayed\n    uint overPayed = msg.value - entryFee;\n    if (overPayed > 0) { msg.sender.transfer(overPayed); }\n}\n\n// Lookup a player's number using their address\nfunction getPlayersFromAddress(address _addressplayer) view private returns (uint8){\n    return getNumFromAddress[_addressplayer];\n}\n\n /// Close registration calculate grand prize, and start the game\nfunction startGame() onlyOwner public {\n    registrationOpen = false;\n    grandPrize = numPlayers * entryFee;\n    startNewRound();\n}\n\nfunction startNewRound() onlyOwner private {\n    rounds[currentRound].roundStarted = true;\n    currentQuestion = rounds[currentRound].question;\n    currentAnswer = \"\";\n}\n\nfunction forceNewRound() onlyOwner public {\n    startNewRound();\n}\n\n/// Make your guesss for the current\nfunction guess(string _guess) public {\n    // Get the players number and require registration\n    uint8 thisPlayer = getPlayersFromAddress(msg.sender);\n    assert(players[thisPlayer].isRegistered);\n\n    // Ensure the player has not guessed twice,\n    // and that someone has not already won this round\n    assert(players[thisPlayer].hasGuessed == false);\n    assert(rounds[currentRound].roundComplete == false);\n    assert(rounds[currentRound].roundStarted == true);\n    players[thisPlayer].guess = _guess;\n    players[thisPlayer].hasGuessed = true;\n\n    // Add points to winner and reveal the correct answer\n    // !WEAKNESS: users could theoretically check answers by checking gas estimates\n    if (keccak256(players[thisPlayer].guess) == keccak256(rounds[currentRound].answer)) {\n        players[thisPlayer].score++;\n        endRound();\n    }\n}\n\nfunction endRound() private {\n    rounds[currentRound].roundComplete = true;\n    // Reveal the answer by assigning it to a public variable\n    currentAnswer = rounds[currentRound].answer;\n    //note to dev: Check that the last player will be reset\n    for (uint8 y = 0; y < numPlayers; y++) {\n        players[y].hasGuessed = false;\n        players[y].guess = \"\";\n    }\n    currentRound++; // Iterate to the next round\n    if (currentRound >= numRounds) { endGame(); } //End the game if necessary\n}\n\n// Calculates the winner and assigns the grand prize\nfunction endGame() onlyOwner public {\n    uint8 winningScore = 0;\n    for (uint8 y = 0; y < numPlayers; y++) {\n        if (players[y].score > winningScore) {\n            winningScore = players[y].score;\n            uint8 winnerNum = y;\n        }\n    }\n    winnerName = players[winnerNum].playerName;\n    players[winnerNum].winnings = grandPrize;\n}\n\n// Requires the winner to withdraw their prize, see why here:\n// https://blog.ethereum.org/2016/06/10/smart-contract-security/\nfunction withdrawWinnings() public {\n    uint8 thisPlayer = getPlayersFromAddress(msg.sender);\n    uint winningSum = players[thisPlayer].winnings;\n    assert(winningSum > 0);\n    players[thisPlayer].winnings = 0;\n    msg.sender.transfer(winningSum);\n}\n\n// Return all funds to owner if things go wrong\nfunction reset() public onlyOwner {\n    owner.transfer(this.balance);\n}\n\n}\n",
  "sourcePath": "/home/thisguy/hackital2018/hq-on-chain/contracts/GameFactory.sol",
  "compiler": {
    "name": "solc",
    "version": "0.4.23+commit.124ca40d.Emscripten.clang"
  },
  "schemaVersion": "2.0.0",
  "updatedAt": "2018-04-28T20:01:03.614Z"
}