{
  "contractName": "Game",
  "abi": [
    {
      "constant": true,
      "inputs": [],
      "name": "entryFee",
      "outputs": [
        {
          "name": "",
          "type": "uint256"
        }
      ],
      "payable": false,
      "stateMutability": "view",
      "type": "function"
    },
    {
      "constant": true,
      "inputs": [],
      "name": "listQuestions",
      "outputs": [
        {
          "name": "",
          "type": "string"
        }
      ],
      "payable": false,
      "stateMutability": "view",
      "type": "function"
    },
    {
      "constant": true,
      "inputs": [],
      "name": "listAnswers",
      "outputs": [
        {
          "name": "",
          "type": "string"
        }
      ],
      "payable": false,
      "stateMutability": "view",
      "type": "function"
    },
    {
      "constant": true,
      "inputs": [],
      "name": "owner",
      "outputs": [
        {
          "name": "",
          "type": "address"
        }
      ],
      "payable": false,
      "stateMutability": "view",
      "type": "function"
    },
    {
      "inputs": [
        {
          "name": "_owner",
          "type": "address"
        },
        {
          "name": "_entryFee",
          "type": "uint256"
        },
        {
          "name": "_listQuestions",
          "type": "string"
        },
        {
          "name": "_listAnswers",
          "type": "string"
        }
      ],
      "payable": false,
      "stateMutability": "nonpayable",
      "type": "constructor"
    }
  ],
  "bytecode": "0x608060405234801561001057600080fd5b506040516103d83803806103d8833981016040908152815160208084015192840151606085015160008054600160a060020a031916600160a060020a038616179055600185905590850180519395909391019161007291600291850190610090565b508051610086906003906020840190610090565b505050505061012b565b828054600181600116156101000203166002900490600052602060002090601f016020900481019282601f106100d157805160ff19168380011785556100fe565b828001600101855582156100fe579182015b828111156100fe5782518255916020019190600101906100e3565b5061010a92915061010e565b5090565b61012891905b8082111561010a5760008155600101610114565b90565b61029e8061013a6000396000f3006080604052600436106100615763ffffffff7c0100000000000000000000000000000000000000000000000000000000600035041663072ea61c81146100665780632503059e1461008d5780634f036078146101175780638da5cb5b1461012c575b600080fd5b34801561007257600080fd5b5061007b61016a565b60408051918252519081900360200190f35b34801561009957600080fd5b506100a2610170565b6040805160208082528351818301528351919283929083019185019080838360005b838110156100dc5781810151838201526020016100c4565b50505050905090810190601f1680156101095780820380516001836020036101000a031916815260200191505b509250505060405180910390f35b34801561012357600080fd5b506100a26101fb565b34801561013857600080fd5b50610141610256565b6040805173ffffffffffffffffffffffffffffffffffffffff9092168252519081900360200190f35b60015481565b6002805460408051602060018416156101000260001901909316849004601f810184900484028201840190925281815292918301828280156101f35780601f106101c8576101008083540402835291602001916101f3565b820191906000526020600020905b8154815290600101906020018083116101d657829003601f168201915b505050505081565b6003805460408051602060026001851615610100026000190190941693909304601f810184900484028201840190925281815292918301828280156101f35780601f106101c8576101008083540402835291602001916101f3565b60005473ffffffffffffffffffffffffffffffffffffffff16815600a165627a7a72305820356b1addf1d9124dc67ca955e415e4d15a5c1d87b308494f270e45edddc033e00029",
  "source": "pragma solidity ^0.4.8;\n\nimport './strings.sol';\n\ncontract GameFactory{\n\n//TO-DO: Checks equal number questions answers\n\naddress[] public contracts;\n\nfunction createGame(\n  uint entryFee,\n  string listQuestions,\n  string listAnswers\n  )\n  public\n  returns(address newContract)\n  {\n\n  Game g = new Game(msg.sender, entryFee, listQuestions, listAnswers);\n  contracts.push(g);\n  return g;\n  }\n}\n\ncontract Game{\n\naddress public owner;\n\nuint public entryFee;\nstring public listQuestions;\nstring public listAnswers;\n\nconstructor(address _owner, uint _entryFee, string _listQuestions, string _listAnswers) public {\n  owner = _owner;\n  entryFee = _entryFee;\n  listQuestions = _listQuestions;\n  listAnswers = _listAnswers;\n}\n\n}\n",
  "sourcePath": "/home/thisguy/hackital2018/hq-on-chain/contracts/GameFactory.sol",
  "compiler": {
    "name": "solc",
    "version": "0.4.23+commit.124ca40d.Emscripten.clang"
  },
  "schemaVersion": "2.0.0",
  "updatedAt": "2018-04-28T17:23:36.764Z"
}