{
  "contractName": "GameFactory",
  "abi": [
    {
      "constant": true,
      "inputs": [
        {
          "name": "",
          "type": "uint256"
        }
      ],
      "name": "contracts",
      "outputs": [
        {
          "name": "",
          "type": "address"
        }
      ],
      "payable": false,
      "stateMutability": "view",
      "type": "function"
    },
    {
      "constant": false,
      "inputs": [
        {
          "name": "entryFee",
          "type": "uint256"
        },
        {
          "name": "listQuestions",
          "type": "string"
        },
        {
          "name": "listAnswers",
          "type": "string"
        }
      ],
      "name": "createGame",
      "outputs": [
        {
          "name": "newContract",
          "type": "address"
        }
      ],
      "payable": false,
      "stateMutability": "nonpayable",
      "type": "function"
    }
  ],
  "bytecode": "0x608060405234801561001057600080fd5b50610719806100206000396000f30060806040526004361061004b5763ffffffff7c0100000000000000000000000000000000000000000000000000000000600035041663474da79a8114610050578063b8f3031514610091575b600080fd5b34801561005c57600080fd5b5061006860043561012d565b6040805173ffffffffffffffffffffffffffffffffffffffff9092168252519081900360200190f35b34801561009d57600080fd5b5060408051602060046024803582810135601f810185900485028601850190965285855261006895833595369560449491939091019190819084018382808284375050604080516020601f89358b018035918201839004830284018301909452808352979a9998810197919650918201945092508291508401838280828437509497506101629650505050505050565b600080548290811061013b57fe5b60009182526020909120015473ffffffffffffffffffffffffffffffffffffffff16905081565b60008033858585610171610305565b808573ffffffffffffffffffffffffffffffffffffffff1673ffffffffffffffffffffffffffffffffffffffff1681526020018481526020018060200180602001838103835285818151815260200191508051906020019080838360005b838110156101e75781810151838201526020016101cf565b50505050905090810190601f1680156102145780820380516001836020036101000a031916815260200191505b50838103825284518152845160209182019186019080838360005b8381101561024757818101518382015260200161022f565b50505050905090810190601f1680156102745780820380516001836020036101000a031916815260200191505b509650505050505050604051809103906000f080158015610299573d6000803e3d6000fd5b50600080546001810182559080527f290decd9548b62a8d60345a988386fc84ba6bc95484008f6362f93160ef3e56301805473ffffffffffffffffffffffffffffffffffffffff191673ffffffffffffffffffffffffffffffffffffffff831617905595945050505050565b6040516103d880610316833901905600608060405234801561001057600080fd5b506040516103d83803806103d8833981016040908152815160208084015192840151606085015160008054600160a060020a031916600160a060020a038616179055600185905590850180519395909391019161007291600291850190610090565b508051610086906003906020840190610090565b505050505061012b565b828054600181600116156101000203166002900490600052602060002090601f016020900481019282601f106100d157805160ff19168380011785556100fe565b828001600101855582156100fe579182015b828111156100fe5782518255916020019190600101906100e3565b5061010a92915061010e565b5090565b61012891905b8082111561010a5760008155600101610114565b90565b61029e8061013a6000396000f3006080604052600436106100615763ffffffff7c0100000000000000000000000000000000000000000000000000000000600035041663072ea61c81146100665780632503059e1461008d5780634f036078146101175780638da5cb5b1461012c575b600080fd5b34801561007257600080fd5b5061007b61016a565b60408051918252519081900360200190f35b34801561009957600080fd5b506100a2610170565b6040805160208082528351818301528351919283929083019185019080838360005b838110156100dc5781810151838201526020016100c4565b50505050905090810190601f1680156101095780820380516001836020036101000a031916815260200191505b509250505060405180910390f35b34801561012357600080fd5b506100a26101fb565b34801561013857600080fd5b50610141610256565b6040805173ffffffffffffffffffffffffffffffffffffffff9092168252519081900360200190f35b60015481565b6002805460408051602060018416156101000260001901909316849004601f810184900484028201840190925281815292918301828280156101f35780601f106101c8576101008083540402835291602001916101f3565b820191906000526020600020905b8154815290600101906020018083116101d657829003601f168201915b505050505081565b6003805460408051602060026001851615610100026000190190941693909304601f810184900484028201840190925281815292918301828280156101f35780601f106101c8576101008083540402835291602001916101f3565b60005473ffffffffffffffffffffffffffffffffffffffff16815600a165627a7a72305820356b1addf1d9124dc67ca955e415e4d15a5c1d87b308494f270e45edddc033e00029a165627a7a723058200a34b483ca73ad5216c191d20b245f44f2120eefaae8e1a51bc27593240cac540029",
  "source": "pragma solidity ^0.4.8;\n\nimport './strings.sol';\n\ncontract GameFactory{\n\n//TO-DO: Checks equal number questions answers\n\naddress[] public contracts;\n\nfunction createGame(\n  uint entryFee,\n  string listQuestions,\n  string listAnswers\n  )\n  public\n  returns(address newContract)\n  {\n\n  Game g = new Game(msg.sender, entryFee, listQuestions, listAnswers);\n  contracts.push(g);\n  return g;\n  }\n}\n\ncontract Game{\n\naddress public owner;\n\nuint public entryFee;\nstring public listQuestions;\nstring public listAnswers;\n\nconstructor(address _owner, uint _entryFee, string _listQuestions, string _listAnswers) public {\n  owner = _owner;\n  entryFee = _entryFee;\n  listQuestions = _listQuestions;\n  listAnswers = _listAnswers;\n}\n\n}\n",
  "sourcePath": "/home/thisguy/hackital2018/hq-on-chain/contracts/GameFactory.sol",
  "compiler": {
    "name": "solc",
    "version": "0.4.23+commit.124ca40d.Emscripten.clang"
  },
  "schemaVersion": "2.0.0",
  "updatedAt": "2018-04-28T17:23:36.763Z"
}