{
  "contractName": "Game",
  "abi": [
    {
      "constant": true,
      "inputs": [],
      "name": "entryFee",
      "outputs": [
        {
          "name": "",
          "type": "uint256"
        }
      ],
      "payable": false,
      "stateMutability": "view",
      "type": "function"
    },
    {
      "constant": true,
      "inputs": [],
      "name": "listQuestions",
      "outputs": [
        {
          "name": "",
          "type": "string"
        }
      ],
      "payable": false,
      "stateMutability": "view",
      "type": "function"
    },
    {
      "constant": true,
      "inputs": [],
      "name": "gameEnded",
      "outputs": [
        {
          "name": "",
          "type": "bool"
        }
      ],
      "payable": false,
      "stateMutability": "view",
      "type": "function"
    },
    {
      "constant": true,
      "inputs": [
        {
          "name": "",
          "type": "uint256"
        }
      ],
      "name": "arrayHashedAnswers",
      "outputs": [
        {
          "name": "",
          "type": "string"
        }
      ],
      "payable": false,
      "stateMutability": "view",
      "type": "function"
    },
    {
      "constant": true,
      "inputs": [
        {
          "name": "",
          "type": "address"
        }
      ],
      "name": "getNumFromAddress",
      "outputs": [
        {
          "name": "",
          "type": "uint8"
        }
      ],
      "payable": false,
      "stateMutability": "view",
      "type": "function"
    },
    {
      "constant": true,
      "inputs": [
        {
          "name": "",
          "type": "uint8"
        }
      ],
      "name": "rounds",
      "outputs": [
        {
          "name": "question",
          "type": "string"
        },
        {
          "name": "answer",
          "type": "string"
        },
        {
          "name": "roundStarted",
          "type": "bool"
        },
        {
          "name": "roundComplete",
          "type": "bool"
        }
      ],
      "payable": false,
      "stateMutability": "view",
      "type": "function"
    },
    {
      "constant": true,
      "inputs": [],
      "name": "registrationOpen",
      "outputs": [
        {
          "name": "",
          "type": "bool"
        }
      ],
      "payable": false,
      "stateMutability": "view",
      "type": "function"
    },
    {
      "constant": true,
      "inputs": [],
      "name": "currentRound",
      "outputs": [
        {
          "name": "",
          "type": "uint8"
        }
      ],
      "payable": false,
      "stateMutability": "view",
      "type": "function"
    },
    {
      "constant": true,
      "inputs": [],
      "name": "owner",
      "outputs": [
        {
          "name": "",
          "type": "address"
        }
      ],
      "payable": false,
      "stateMutability": "view",
      "type": "function"
    },
    {
      "constant": true,
      "inputs": [],
      "name": "numPlayers",
      "outputs": [
        {
          "name": "",
          "type": "uint8"
        }
      ],
      "payable": false,
      "stateMutability": "view",
      "type": "function"
    },
    {
      "constant": true,
      "inputs": [],
      "name": "numRounds",
      "outputs": [
        {
          "name": "",
          "type": "uint256"
        }
      ],
      "payable": false,
      "stateMutability": "view",
      "type": "function"
    },
    {
      "constant": true,
      "inputs": [
        {
          "name": "",
          "type": "uint8"
        }
      ],
      "name": "players",
      "outputs": [
        {
          "name": "playerName",
          "type": "string"
        },
        {
          "name": "hasGuessed",
          "type": "bool"
        },
        {
          "name": "isRegistered",
          "type": "bool"
        },
        {
          "name": "guess",
          "type": "string"
        },
        {
          "name": "playerAddress",
          "type": "address"
        },
        {
          "name": "score",
          "type": "uint8"
        },
        {
          "name": "winnings",
          "type": "uint256"
        }
      ],
      "payable": false,
      "stateMutability": "view",
      "type": "function"
    },
    {
      "constant": true,
      "inputs": [],
      "name": "grandPrize",
      "outputs": [
        {
          "name": "",
          "type": "uint256"
        }
      ],
      "payable": false,
      "stateMutability": "view",
      "type": "function"
    },
    {
      "constant": true,
      "inputs": [],
      "name": "winnerName",
      "outputs": [
        {
          "name": "",
          "type": "string"
        }
      ],
      "payable": false,
      "stateMutability": "view",
      "type": "function"
    },
    {
      "constant": true,
      "inputs": [],
      "name": "currentQuestion",
      "outputs": [
        {
          "name": "",
          "type": "string"
        }
      ],
      "payable": false,
      "stateMutability": "view",
      "type": "function"
    },
    {
      "constant": true,
      "inputs": [],
      "name": "listHashedAnswers",
      "outputs": [
        {
          "name": "",
          "type": "string"
        }
      ],
      "payable": false,
      "stateMutability": "view",
      "type": "function"
    },
    {
      "constant": true,
      "inputs": [
        {
          "name": "",
          "type": "uint256"
        }
      ],
      "name": "arrayQuestions",
      "outputs": [
        {
          "name": "",
          "type": "string"
        }
      ],
      "payable": false,
      "stateMutability": "view",
      "type": "function"
    },
    {
      "inputs": [
        {
          "name": "_owner",
          "type": "address"
        },
        {
          "name": "_entryFee",
          "type": "uint256"
        },
        {
          "name": "_listQuestions",
          "type": "string"
        },
        {
          "name": "_listHashedAnswers",
          "type": "string"
        }
      ],
      "payable": false,
      "stateMutability": "nonpayable",
      "type": "constructor"
    },
    {
      "constant": false,
      "inputs": [
        {
          "name": "_questions",
          "type": "string"
        },
        {
          "name": "_answers",
          "type": "string"
        }
      ],
      "name": "setQuestions",
      "outputs": [],
      "payable": false,
      "stateMutability": "nonpayable",
      "type": "function"
    },
    {
      "constant": false,
      "inputs": [
        {
          "name": "_playerName",
          "type": "string"
        }
      ],
      "name": "register",
      "outputs": [],
      "payable": true,
      "stateMutability": "payable",
      "type": "function"
    },
    {
      "constant": false,
      "inputs": [],
      "name": "startGame",
      "outputs": [
        {
          "name": "",
          "type": "bool"
        }
      ],
      "payable": false,
      "stateMutability": "nonpayable",
      "type": "function"
    },
    {
      "constant": false,
      "inputs": [],
      "name": "startNewRound",
      "outputs": [],
      "payable": false,
      "stateMutability": "nonpayable",
      "type": "function"
    },
    {
      "constant": false,
      "inputs": [],
      "name": "forceNewRound",
      "outputs": [],
      "payable": false,
      "stateMutability": "nonpayable",
      "type": "function"
    },
    {
      "constant": false,
      "inputs": [
        {
          "name": "_guess",
          "type": "string"
        }
      ],
      "name": "guess",
      "outputs": [],
      "payable": false,
      "stateMutability": "nonpayable",
      "type": "function"
    },
    {
      "constant": false,
      "inputs": [],
      "name": "endRound",
      "outputs": [],
      "payable": false,
      "stateMutability": "nonpayable",
      "type": "function"
    },
    {
      "constant": false,
      "inputs": [],
      "name": "endGame",
      "outputs": [],
      "payable": false,
      "stateMutability": "nonpayable",
      "type": "function"
    },
    {
      "constant": false,
      "inputs": [],
      "name": "withdrawWinnings",
      "outputs": [],
      "payable": false,
      "stateMutability": "nonpayable",
      "type": "function"
    },
    {
      "constant": false,
      "inputs": [],
      "name": "reset",
      "outputs": [],
      "payable": false,
      "stateMutability": "nonpayable",
      "type": "function"
    }
  ],
  "bytecode": "0x60806040526008805460ff19908116909155600a805490911660011790553480156200002a57600080fd5b5060405162001d2c38038062001d2c833981016040908152815160208084015192840151606085015160028054600160a060020a031916600160a060020a03861617905560038590559085018051939590939101916200009091600491850190620000b1565b508051620000a6906005906020840190620000b1565b505050505062000156565b828054600181600116156101000203166002900490600052602060002090601f016020900481019282601f10620000f457805160ff191683800117855562000124565b8280016001018555821562000124579182015b828111156200012457825182559160200191906001019062000107565b506200013292915062000136565b5090565b6200015391905b808211156200013257600081556001016200013d565b90565b611bc680620001666000396000f30060806040526004361061015e5763ffffffff7c0100000000000000000000000000000000000000000000000000000000600035041663072ea61c81146101635780632503059e1461018a5780632f6fe396146102145780634b3055de1461023d5780634eee59b31461025557806356f58538146102b05780635d7984d3146102e75780636cbc2ded146103f2578063736f88cd14610407578063749aa2d91461041c5780638a19c8bc146104315780638da5cb5b146104465780639140bd711461047757806397b2f5561461050e5780639d78325d14610523578063af155a4414610538578063bd85948c14610674578063cc42e83a14610689578063ce76c5ca1461069e578063d65ab5f2146106b3578063d826f88f146106c8578063e2ba53f0146106dd578063e4fc0d7f146106f2578063e7dea02214610707578063eac046b01461071c578063eb314eb114610731578063f2c298be14610749575b600080fd5b34801561016f57600080fd5b50610178610795565b60408051918252519081900360200190f35b34801561019657600080fd5b5061019f61079b565b6040805160208082528351818301528351919283929083019185019080838360005b838110156101d95781810151838201526020016101c1565b50505050905090810190601f1680156102065780820380516001836020036101000a031916815260200191505b509250505060405180910390f35b34801561022057600080fd5b50610229610829565b604080519115158252519081900360200190f35b34801561024957600080fd5b5061019f600435610832565b34801561026157600080fd5b506040805160206004803580820135601f81018490048402850184019095528484526102ae9436949293602493928401919081908401838280828437509497506108a69650505050505050565b005b3480156102bc57600080fd5b506102d1600160a060020a0360043516610b04565b6040805160ff9092168252519081900360200190f35b3480156102f357600080fd5b5061030260ff60043516610b19565b6040805183151591810191909152811515606082015260808082528551908201528451819060208083019160a084019189019080838360005b8381101561035357818101518382015260200161033b565b50505050905090810190601f1680156103805780820380516001836020036101000a031916815260200191505b50838103825286518152865160209182019188019080838360005b838110156103b357818101518382015260200161039b565b50505050905090810190601f1680156103e05780820380516001836020036101000a031916815260200191505b50965050505050505060405180910390f35b3480156103fe57600080fd5b506102ae610c6a565b34801561041357600080fd5b50610229610d85565b34801561042857600080fd5b506102ae610d8e565b34801561043d57600080fd5b506102d1610e62565b34801561045257600080fd5b5061045b610e6b565b60408051600160a060020a039092168252519081900360200190f35b34801561048357600080fd5b506040805160206004803580820135601f81018490048402850184019095528484526102ae94369492936024939284019190819084018382808284375050604080516020601f89358b018035918201839004830284018301909452808352979a999881019791965091820194509250829150840183828082843750949750610e7a9650505050505050565b34801561051a57600080fd5b506102d1610fb6565b34801561052f57600080fd5b50610178610fc4565b34801561054457600080fd5b5061055360ff60043516610fca565b604051808060200188151515158152602001871515151581526020018060200186600160a060020a0316600160a060020a031681526020018560ff1660ff16815260200184815260200183810383528a818151815260200191508051906020019080838360005b838110156105d25781810151838201526020016105ba565b50505050905090810190601f1680156105ff5780820380516001836020036101000a031916815260200191505b50838103825287518152875160209182019189019080838360005b8381101561063257818101518382015260200161061a565b50505050905090810190601f16801561065f5780820380516001836020036101000a031916815260200191505b50995050505050505050505060405180910390f35b34801561068057600080fd5b506102ae611142565b34801561069557600080fd5b506102ae6111b2565b3480156106aa57600080fd5b5061017861122d565b3480156106bf57600080fd5b50610229611233565b3480156106d457600080fd5b506102ae6113a1565b3480156106e957600080fd5b5061019f6113f7565b3480156106fe57600080fd5b506102ae611452565b34801561071357600080fd5b5061019f611477565b34801561072857600080fd5b5061019f6114d2565b34801561073d57600080fd5b5061019f60043561152d565b6040805160206004803580820135601f81018490048402850184019095528484526102ae94369492936024939284019190819084018382808284375094975061153b9650505050505050565b60035481565b6004805460408051602060026001851615610100026000190190941693909304601f810184900484028201840190925281815292918301828280156108215780601f106107f657610100808354040283529160200191610821565b820191906000526020600020905b81548152906001019060200180831161080457829003601f168201915b505050505081565b600c5460ff1681565b600e80548290811061084057fe5b600091825260209182902001805460408051601f60026000196101006001871615020190941693909304928301859004850281018501909152818152935090918301828280156108215780601f106107f657610100808354040283529160200191610821565b60006108b133611668565b60ff8082166000908152602081905260409020600101549192506101009091041615156108da57fe5b60ff80821660009081526020819052604090206001015416156108f957fe5b60085460ff9081166000908152600f60205260409020600201546101009004161561092057fe5b60085460ff9081166000908152600f602052604090206002015416151560011461094657fe5b60ff8116600090815260208181526040909120835161096d926002909201918501906119b6565b5060ff8082166000908152602081815260408083206001908101805460ff1916821790556008549094168352600f90915290819020905190820180549092829184916002600019918316156101000291909101909116048015610a075780601f106109e5576101008083540402835291820191610a07565b820191906000526020600020905b8154815290600101906020018083116109f3575b50509150506040518091039020600019166000808360ff1660ff1681526020019081526020016000206002016040518082805460018160011615610100020316600290048015610a8e5780601f10610a6c576101008083540402835291820191610a8e565b820191906000526020600020905b815481529060010190602001808311610a7a575b50509150506040518091039020600019161415610b005760ff8181166000908152602081905260409020600301805474ff000000000000000000000000000000000000000019811674010000000000000000000000000000000000000000918290048416600101909316029190911790555b5050565b60016020526000908152604090205460ff1681565b600f6020908152600091825260409182902080548351601f60026000196101006001861615020190931692909204918201849004840281018401909452808452909291839190830182828015610bb05780601f10610b8557610100808354040283529160200191610bb0565b820191906000526020600020905b815481529060010190602001808311610b9357829003601f168201915b505050505090806001018054600181600116156101000203166002900480601f016020809104026020016040519081016040528092919081815260200182805460018160011615610100020316600290048015610c4e5780601f10610c2357610100808354040283529160200191610c4e565b820191906000526020600020905b815481529060010190602001808311610c3157829003601f168201915b5050506002909301549192505060ff8082169161010090041684565b6002546000908190819033600160a060020a03908116911614610c8c57600080fd5b600c805460ff19166001179055600092508291505b60085460ff61010090910481169083161015610d335760ff828116600090815260208190526040902060030154818516740100000000000000000000000000000000000000009091049091161115610d28575060ff808216600090815260208190526040902060030154740100000000000000000000000000000000000000009004169150805b600190910190610ca1565b60ff811660009081526020819052604090208054610d6691600b9160026000196101006001841615020190911604611a34565b5060075460ff9091166000908152602081905260409020600401555050565b600a5460ff1681565b60025460009033600160a060020a03908116911614610dac57600080fd5b5060085460ff166000908152600f60205260408120600201805461ff0019166101001790555b60085460ff61010090910481169082161015610e355760ff811660008181526020818152604080832060018101805460ff19169055815180840192839052848152948452929091529151610e2c92600290920191906119b6565b50600101610dd2565b6008805460ff198116600160ff9283160182161791829055600954911610610e5f57610e5f610c6a565b50565b60085460ff1681565b600254600160a060020a031681565b60025460009033600160a060020a03908116911614610e9857600080fd5b610ed7836040805190810160405280600181526020017f3b00000000000000000000000000000000000000000000000000000000000000815250611686565b8051610eeb91600d91602090910190611aa9565b50610f2b826040805190810160405280600181526020017f3b00000000000000000000000000000000000000000000000000000000000000815250611686565b8051610f3f91600e91602090910190611aa9565b5050600d546000190160095560005b6009548160ff161015610fb157600d805460ff8316908110610f6c57fe5b6000918252602080832060ff85168452600f909152604090922091018054610fa892919060026000196101006001841615020190911604611a34565b50600101610f4e565b505050565b600854610100900460ff1681565b60095481565b6000602081815291815260409081902080548251601f60026000196101006001861615020190931692909204918201859004850281018501909352808352909283919083018282801561105e5780601f106110335761010080835404028352916020019161105e565b820191906000526020600020905b81548152906001019060200180831161104157829003601f168201915b50505050600183810154600280860180546040805160206101009784161588026000190190931694909404601f8101839004830285018301909152808452969760ff80861698969095049094169550929391929091908301828280156111055780601f106110da57610100808354040283529160200191611105565b820191906000526020600020905b8154815290600101906020018083116110e857829003601f168201915b5050505060038301546004909301549192600160a060020a038116927401000000000000000000000000000000000000000090910460ff16915087565b60025433600160a060020a0390811691161461115d57600080fd5b6008805460ff9081166000908152600f60205260408082206002908101805460ff191660019081179091559454909316825290208054610e5f9360069360001991831615610100029190910190911604611a34565b6000806111be33611668565b60ff811660009081526020819052604081206004015491935090915081116111e257fe5b60ff821660009081526020819052604080822060040182905551600160a060020a0333169183156108fc02918491818181858888f19350505050158015610fb1573d6000803e3d6000fd5b60075481565b60025460009033600160a060020a0390811691161461125157600080fd5b600a805460ff1916905560035460085460ff610100918290041690910260075560048054604080516020600260018516159096026000190190931694909404601f81018390048302850183019091528084526113929392918301828280156112fa5780601f106112cf576101008083540402835291602001916112fa565b820191906000526020600020905b8154815290600101906020018083116112dd57829003601f168201915b505060058054604080516020601f60026000196101006001881615020190951694909404938401819004810282018101909252828152955091935091508301828280156113885780601f1061135d57610100808354040283529160200191611388565b820191906000526020600020905b81548152906001019060200180831161136b57829003601f168201915b5050505050610e7a565b61139a611142565b5060015b90565b60025433600160a060020a039081169116146113bc57600080fd5b600254604051600160a060020a039182169130163180156108fc02916000818181858888f19350505050158015610e5f573d6000803e3d6000fd5b600b805460408051602060026001851615610100026000190190941693909304601f810184900484028201840190925281815292918301828280156108215780601f106107f657610100808354040283529160200191610821565b60025433600160a060020a0390811691161461146d57600080fd5b611475611142565b565b6006805460408051602060026001851615610100026000190190941693909304601f810184900484028201840190925281815292918301828280156108215780601f106107f657610100808354040283529160200191610821565b6005805460408051602060026001851615610100026000190190941693909304601f810184900484028201840190925281815292918301828280156108215780601f106107f657610100808354040283529160200191610821565b600d80548290811061084057fe5b600060035434101580156115515750600a5460ff165b151561155957fe5b600854610100900460ff166000908152602081815260409091208351611581928501906119b6565b50506008805460ff61010091829004811660009081526020818152604080832060039081018054600160a060020a03331673ffffffffffffffffffffffffffffffffffffffff1990911681179091558754879004861685528285206001908101805461ff00199081168a17909155895492875294819052928520805460ff1916918890048716919091179055865486810486169092019094169094029316929092179092559054340390811115610b0057604051600160a060020a0333169082156108fc029083906000818181858888f19350505050158015610fb1573d6000803e3d6000fd5b600160a060020a031660009081526001602052604090205460ff1690565b6060611690611b02565b611698611b02565b60006116a386611748565b92506116ae85611748565b91506116c0838363ffffffff61176e16565b6001016040519080825280602002602001820160405280156116f657816020015b60608152602001906001900390816116e15790505b509350600090505b835181101561173f5761171f61171a848463ffffffff6117db16565b6117ee565b848281518110151561172d57fe5b602090810290910101526001016116fe565b50505092915050565b611750611b02565b50604080518082019091528151815260209182019181019190915290565b60008082600001516117928560000151866020015186600001518760200151611841565b0190505b835160208501510181116117d45782516020808601518651918601516001909501946117cc929185039091039084908490611841565b019050611796565b5092915050565b6117e3611b02565b6117d4838383611901565b606080600083600001516040519080825280601f01601f191660200182016040528015611825578160200160208202803883390190505b5091506020820190506117d48185602001518660000151611972565b600083818080808080808c8b116118eb5760208b116118b45760018b60200360080260020a03196001029550858a511694508a8d8d010393508588511692505b8285146118ac57838810611899578c8c0198506118f1565b8780600101985050858851169250611881565b8798506118f1565b8a8a209150600096505b8a8d0387116118eb5750898720818114156118db578798506118f1565b60019788019796909601956118be565b8c8c0198505b5050505050505050949350505050565b611909611b02565b60006119278560000151866020015186600001518760200151611841565b602080870180519186019190915280518203855286519051919250018114156119535760008552611969565b8351835186519101900385528351810160208601525b50909392505050565b60005b60208210611997578251845260209384019390920191601f1990910190611975565b50905182516020929092036101000a6000190180199091169116179052565b828054600181600116156101000203166002900490600052602060002090601f016020900481019282601f106119f757805160ff1916838001178555611a24565b82800160010185558215611a24579182015b82811115611a24578251825591602001919060010190611a09565b50611a30929150611b19565b5090565b828054600181600116156101000203166002900490600052602060002090601f016020900481019282601f10611a6d5780548555611a24565b82800160010185558215611a2457600052602060002091601f016020900482015b82811115611a24578254825591600101919060010190611a8e565b828054828255906000526020600020908101928215611af6579160200282015b82811115611af65782518051611ae69184916020909101906119b6565b5091602001919060010190611ac9565b50611a30929150611b33565b604080518082019091526000808252602082015290565b61139e91905b80821115611a305760008155600101611b1f565b61139e91905b80821115611a30576000611b4d8282611b56565b50600101611b39565b50805460018160011615610100020316600290046000825580601f10611b7c5750610e5f565b601f016020900490600052602060002090810190610e5f9190611b195600a165627a7a723058203b439871ff7c2745874873f0b315c16feed09eca35045fd275162e1c159b2bb90029",
  "source": "pragma solidity ^0.4.21;\n\nimport './strings.sol';\n\ncontract Game {\n    using strings for *; //Arachnid library declaration\n\n    struct Player {\n        string playerName;\n        bool hasGuessed;\n        bool isRegistered;\n        string guess;\n        address playerAddress;\n        uint8 score;\n        uint winnings;\n    }\n\n    struct Rounds {\n        string question;\n        string answer;\n        bool roundStarted;\n        bool roundComplete;\n    }\n\n    //bi-directional mapping, since solidity is not great with arrays\n    mapping(uint8 => Player) public players;\n    mapping(address => uint8) public getNumFromAddress;\n\n    address public owner;\n\n    uint public entryFee; //units of wei\n    //!!!!Make Private\n    string public listQuestions;\n    string public listHashedAnswers;\n\n    string public currentQuestion;\n    uint public grandPrize;\n    uint8 public currentRound = 0;\n    uint8 public numPlayers;\n    uint public numRounds;\n    bool public registrationOpen = true;\n    string public winnerName;\n    bool public gameEnded;\n\n    //Make private before deploying\n    string[] public arrayQuestions;\n    string[] public arrayHashedAnswers;\n    mapping(uint8 => Rounds) public rounds;\n\n    modifier onlyOwner() {\n        require(msg.sender == owner);  _; }\n\n    constructor(address _owner, uint _entryFee, string _listQuestions, string _listHashedAnswers) public {\n      owner = _owner;\n      entryFee = _entryFee;\n      listQuestions = _listQuestions;\n      listHashedAnswers = _listHashedAnswers;\n    //  setQuestions(_listQuestions, _listHashedAnswers);\n    }\n\n    // Lookup a player's number using their address\n    function getPlayersFromAddress(address _addressplayer) view private returns (uint8){\n        return getNumFromAddress[_addressplayer];\n    }\n\n    /// Set the questions and answers\n    function setQuestions(string _questions, string _answers) onlyOwner public {\n        arrayQuestions = convertStringToArray(_questions, \";\");\n        arrayHashedAnswers = convertStringToArray(_answers, \";\");\n        numRounds = arrayQuestions.length-1;\n        for (uint8 y = 0; y < numRounds; y++){\n            rounds[y].question = arrayQuestions[y];\n            }\n    }\n\n    function convertStringToArray(string inputString, string deliminator) private returns(string[] parts){\n        var s = inputString.toSlice();\n        var delim = deliminator.toSlice();\n        parts = new string[](s.count(delim) + 1);\n        for(uint i = 0; i < parts.length; i++) {\n            parts[i] = s.split(delim).toString();\n        }\n    }\n\n    /// Register using your name and pay the entry fee\n    function register(string _playerName) payable public {\n        //Check that registration is open\n        assert(msg.value >= entryFee && registrationOpen);\n        // The first player is player 0\n        players[numPlayers].playerName = _playerName;\n        players[numPlayers].playerAddress = msg.sender;\n        players[numPlayers].isRegistered = true;\n\n        // Create lookup of player's number using their address\n        getNumFromAddress[msg.sender] = numPlayers;\n        numPlayers++;\n\n        // Return funds if the player overpayed\n        uint overPayed = msg.value - entryFee;\n        if (overPayed > 0) { msg.sender.transfer(overPayed); }\n    }\n\n     /// Close registration calculate grand prize, and start the game\n    function startGame() onlyOwner public returns(bool) {\n        registrationOpen = false;\n        grandPrize = numPlayers * entryFee;\n        setQuestions(listQuestions, listHashedAnswers);\n        startNewRound();\n        return true;\n    }\n\n    function startNewRound() onlyOwner public {\n        rounds[currentRound].roundStarted = true;\n        currentQuestion = rounds[currentRound].question;\n    }\n\n    //debugging function- can remove\n    function forceNewRound() onlyOwner public {\n        startNewRound();\n    }\n\n    /// Make your guesss for the current\n    function guess(string _guess) public {\n        // Get the players number and require registration\n        uint8 thisPlayer = getPlayersFromAddress(msg.sender);\n        assert(players[thisPlayer].isRegistered);\n\n        // Ensure the player has not guessed twice,\n        // and that someone has not already won this round\n        assert(players[thisPlayer].hasGuessed == false);\n        assert(rounds[currentRound].roundComplete == false);\n        assert(rounds[currentRound].roundStarted == true);\n        players[thisPlayer].guess = _guess;\n        players[thisPlayer].hasGuessed = true;\n\n        // Add points to winner and reveal the correct answer\n        if (keccak256(players[thisPlayer].guess) == keccak256(rounds[currentRound].answer)) {\n            players[thisPlayer].score++;\n        }\n    }\n\n    function endRound() public onlyOwner {\n        rounds[currentRound].roundComplete = true;\n        for (uint8 y = 0; y < numPlayers; y++) {\n            players[y].hasGuessed = false;\n            players[y].guess = \"\";\n        }\n        currentRound++; // Iterate to the next round\n        if (currentRound >= numRounds) { endGame(); } //End the game if necessary\n    }\n\n    // Calculates the winner and assigns the grand prize\n    //note: redundant with endRound()\n    function endGame() onlyOwner public {\n        gameEnded = true;\n        uint8 winningScore = 0;\n\n        for (uint8 y = 0; y < numPlayers; y++) {\n            if (players[y].score > winningScore) {\n                winningScore = players[y].score;\n                uint8 winnerNum = y;\n            }\n        }\n        winnerName = players[winnerNum].playerName;\n        players[winnerNum].winnings = grandPrize;\n    }\n\n    // Requires the winner to withdraw their prize, see why here:\n    // https://blog.ethereum.org/2016/06/10/smart-contract-security/\n    function withdrawWinnings() public {\n        uint8 thisPlayer = getPlayersFromAddress(msg.sender);\n        uint winningSum = players[thisPlayer].winnings;\n        assert(winningSum > 0); //throws exceptions for non-winners\n        players[thisPlayer].winnings = 0; //resets the winnings to 0 (just to be safe?)\n        msg.sender.transfer(winningSum);\n    }\n\n    // Return all funds to owner if things go wrong\n    function reset() public onlyOwner {\n        owner.transfer(this.balance);\n    }\n}\n",
  "sourcePath": "/home/linux/Documents/Repo/hq-on-chain/contracts/Game.sol",
  "compiler": {
    "name": "solc",
    "version": "0.4.23+commit.124ca40d.Emscripten.clang"
  },
  "schemaVersion": "2.0.0",
  "updatedAt": "2018-04-29T05:58:49.559Z"
}