{
  "contractName": "GameSolo",
  "abi": [
    {
      "constant": true,
      "inputs": [],
      "name": "entryFee",
      "outputs": [
        {
          "name": "",
          "type": "uint256"
        }
      ],
      "payable": false,
      "stateMutability": "view",
      "type": "function"
    },
    {
      "constant": true,
      "inputs": [],
      "name": "gameEnded",
      "outputs": [
        {
          "name": "",
          "type": "bool"
        }
      ],
      "payable": false,
      "stateMutability": "view",
      "type": "function"
    },
    {
      "constant": true,
      "inputs": [
        {
          "name": "",
          "type": "uint256"
        }
      ],
      "name": "arrayHashedAnswers",
      "outputs": [
        {
          "name": "",
          "type": "string"
        }
      ],
      "payable": false,
      "stateMutability": "view",
      "type": "function"
    },
    {
      "constant": true,
      "inputs": [
        {
          "name": "",
          "type": "address"
        }
      ],
      "name": "getNumFromAddress",
      "outputs": [
        {
          "name": "",
          "type": "uint8"
        }
      ],
      "payable": false,
      "stateMutability": "view",
      "type": "function"
    },
    {
      "constant": true,
      "inputs": [
        {
          "name": "",
          "type": "uint8"
        }
      ],
      "name": "rounds",
      "outputs": [
        {
          "name": "question",
          "type": "string"
        },
        {
          "name": "answer",
          "type": "string"
        },
        {
          "name": "roundStarted",
          "type": "bool"
        },
        {
          "name": "roundComplete",
          "type": "bool"
        }
      ],
      "payable": false,
      "stateMutability": "view",
      "type": "function"
    },
    {
      "constant": true,
      "inputs": [],
      "name": "registrationOpen",
      "outputs": [
        {
          "name": "",
          "type": "bool"
        }
      ],
      "payable": false,
      "stateMutability": "view",
      "type": "function"
    },
    {
      "constant": true,
      "inputs": [],
      "name": "currentRound",
      "outputs": [
        {
          "name": "",
          "type": "uint8"
        }
      ],
      "payable": false,
      "stateMutability": "view",
      "type": "function"
    },
    {
      "constant": true,
      "inputs": [],
      "name": "owner",
      "outputs": [
        {
          "name": "",
          "type": "address"
        }
      ],
      "payable": false,
      "stateMutability": "view",
      "type": "function"
    },
    {
      "constant": true,
      "inputs": [],
      "name": "numPlayers",
      "outputs": [
        {
          "name": "",
          "type": "uint8"
        }
      ],
      "payable": false,
      "stateMutability": "view",
      "type": "function"
    },
    {
      "constant": true,
      "inputs": [],
      "name": "numRounds",
      "outputs": [
        {
          "name": "",
          "type": "uint256"
        }
      ],
      "payable": false,
      "stateMutability": "view",
      "type": "function"
    },
    {
      "constant": true,
      "inputs": [
        {
          "name": "",
          "type": "uint8"
        }
      ],
      "name": "players",
      "outputs": [
        {
          "name": "playerName",
          "type": "string"
        },
        {
          "name": "hasGuessed",
          "type": "bool"
        },
        {
          "name": "isRegistered",
          "type": "bool"
        },
        {
          "name": "guess",
          "type": "string"
        },
        {
          "name": "playerAddress",
          "type": "address"
        },
        {
          "name": "score",
          "type": "uint8"
        },
        {
          "name": "winnings",
          "type": "uint256"
        }
      ],
      "payable": false,
      "stateMutability": "view",
      "type": "function"
    },
    {
      "constant": true,
      "inputs": [],
      "name": "grandPrize",
      "outputs": [
        {
          "name": "",
          "type": "uint256"
        }
      ],
      "payable": false,
      "stateMutability": "view",
      "type": "function"
    },
    {
      "constant": true,
      "inputs": [],
      "name": "winnerName",
      "outputs": [
        {
          "name": "",
          "type": "string"
        }
      ],
      "payable": false,
      "stateMutability": "view",
      "type": "function"
    },
    {
      "constant": true,
      "inputs": [],
      "name": "currentQuestion",
      "outputs": [
        {
          "name": "",
          "type": "string"
        }
      ],
      "payable": false,
      "stateMutability": "view",
      "type": "function"
    },
    {
      "constant": true,
      "inputs": [
        {
          "name": "",
          "type": "uint256"
        }
      ],
      "name": "arrayQuestions",
      "outputs": [
        {
          "name": "",
          "type": "string"
        }
      ],
      "payable": false,
      "stateMutability": "view",
      "type": "function"
    },
    {
      "constant": false,
      "inputs": [
        {
          "name": "_entryFee",
          "type": "uint256"
        },
        {
          "name": "_listQuestions",
          "type": "string"
        },
        {
          "name": "_listHashedAnswers",
          "type": "string"
        }
      ],
      "name": "newGame",
      "outputs": [
        {
          "name": "",
          "type": "address"
        }
      ],
      "payable": false,
      "stateMutability": "nonpayable",
      "type": "function"
    },
    {
      "constant": true,
      "inputs": [
        {
          "name": "playerID",
          "type": "uint8"
        }
      ],
      "name": "getPlayerName",
      "outputs": [
        {
          "name": "",
          "type": "string"
        }
      ],
      "payable": false,
      "stateMutability": "view",
      "type": "function"
    },
    {
      "constant": false,
      "inputs": [
        {
          "name": "_questions",
          "type": "string"
        },
        {
          "name": "_answers",
          "type": "string"
        }
      ],
      "name": "setQuestions",
      "outputs": [],
      "payable": false,
      "stateMutability": "nonpayable",
      "type": "function"
    },
    {
      "constant": false,
      "inputs": [
        {
          "name": "_playerName",
          "type": "string"
        }
      ],
      "name": "register",
      "outputs": [],
      "payable": true,
      "stateMutability": "payable",
      "type": "function"
    },
    {
      "constant": false,
      "inputs": [],
      "name": "startGame",
      "outputs": [
        {
          "name": "",
          "type": "bool"
        }
      ],
      "payable": false,
      "stateMutability": "nonpayable",
      "type": "function"
    },
    {
      "constant": false,
      "inputs": [],
      "name": "startNewRound",
      "outputs": [],
      "payable": false,
      "stateMutability": "nonpayable",
      "type": "function"
    },
    {
      "constant": false,
      "inputs": [],
      "name": "forceNewRound",
      "outputs": [],
      "payable": false,
      "stateMutability": "nonpayable",
      "type": "function"
    },
    {
      "constant": false,
      "inputs": [
        {
          "name": "_guess",
          "type": "string"
        }
      ],
      "name": "guess",
      "outputs": [],
      "payable": false,
      "stateMutability": "nonpayable",
      "type": "function"
    },
    {
      "constant": false,
      "inputs": [],
      "name": "endRound",
      "outputs": [],
      "payable": false,
      "stateMutability": "nonpayable",
      "type": "function"
    },
    {
      "constant": false,
      "inputs": [],
      "name": "endGame",
      "outputs": [],
      "payable": false,
      "stateMutability": "nonpayable",
      "type": "function"
    },
    {
      "constant": false,
      "inputs": [],
      "name": "withdrawWinnings",
      "outputs": [],
      "payable": false,
      "stateMutability": "nonpayable",
      "type": "function"
    },
    {
      "constant": false,
      "inputs": [],
      "name": "reset",
      "outputs": [],
      "payable": false,
      "stateMutability": "nonpayable",
      "type": "function"
    }
  ],
  "bytecode": "0x60806040526006805460ff1990811690915560088054909116600117905534801561002957600080fd5b50611bac806100396000396000f30060806040526004361061015e5763ffffffff7c0100000000000000000000000000000000000000000000000000000000600035041663072ea61c81146101635780632f6fe3961461018a5780634b3055de146101b35780634eee59b31461024057806356f585381461029b5780635d7984d3146102d25780636cbc2ded146103dd5780637045c8d3146103f2578063736f88cd146104aa578063749aa2d9146104bf5780638a19c8bc146104d45780638da5cb5b146104e95780639140bd71146104fe57806397b2f556146105955780639d78325d146105aa578063af155a44146105bf578063b8ef455c146106fb578063bd85948c14610716578063cc42e83a1461072b578063ce76c5ca14610740578063d65ab5f214610755578063d826f88f1461076a578063e2ba53f01461077f578063e4fc0d7f14610794578063e7dea022146107a9578063eb314eb1146107be578063f2c298be146107d6575b600080fd5b34801561016f57600080fd5b50610178610822565b60408051918252519081900360200190f35b34801561019657600080fd5b5061019f610828565b604080519115158252519081900360200190f35b3480156101bf57600080fd5b506101cb600435610831565b6040805160208082528351818301528351919283929083019185019080838360005b838110156102055781810151838201526020016101ed565b50505050905090810190601f1680156102325780820380516001836020036101000a031916815260200191505b509250505060405180910390f35b34801561024c57600080fd5b506040805160206004803580820135601f81018490048402850184019095528484526102999436949293602493928401919081908401838280828437509497506108d89650505050505050565b005b3480156102a757600080fd5b506102bc600160a060020a0360043516610b36565b6040805160ff9092168252519081900360200190f35b3480156102de57600080fd5b506102ed60ff60043516610b4b565b6040805183151591810191909152811515606082015260808082528551908201528451819060208083019160a084019189019080838360005b8381101561033e578181015183820152602001610326565b50505050905090810190601f16801561036b5780820380516001836020036101000a031916815260200191505b50838103825286518152865160209182019188019080838360005b8381101561039e578181015183820152602001610386565b50505050905090810190601f1680156103cb5780820380516001836020036101000a031916815260200191505b50965050505050505060405180910390f35b3480156103e957600080fd5b50610299610c9c565b3480156103fe57600080fd5b5060408051602060046024803582810135601f810185900485028601850190965285855261048e95833595369560449491939091019190819084018382808284375050604080516020601f89358b018035918201839004830284018301909452808352979a999881019791965091820194509250829150840183828082843750949750610db79650505050505050565b60408051600160a060020a039092168252519081900360200190f35b3480156104b657600080fd5b5061019f610e04565b3480156104cb57600080fd5b50610299610e0d565b3480156104e057600080fd5b506102bc610eee565b3480156104f557600080fd5b5061048e610ef7565b34801561050a57600080fd5b506040805160206004803580820135601f810184900484028501840190955284845261029994369492936024939284019190819084018382808284375050604080516020601f89358b018035918201839004830284018301909452808352979a999881019791965091820194509250829150840183828082843750949750610f069650505050505050565b3480156105a157600080fd5b506102bc611098565b3480156105b657600080fd5b506101786110a6565b3480156105cb57600080fd5b506105da60ff600435166110ac565b604051808060200188151515158152602001871515151581526020018060200186600160a060020a0316600160a060020a031681526020018560ff1660ff16815260200184815260200183810383528a818151815260200191508051906020019080838360005b83811015610659578181015183820152602001610641565b50505050905090810190601f1680156106865780820380516001836020036101000a031916815260200191505b50838103825287518152875160209182019189019080838360005b838110156106b95781810151838201526020016106a1565b50505050905090810190601f1680156106e65780820380516001836020036101000a031916815260200191505b50995050505050505050505060405180910390f35b34801561070757600080fd5b506101cb60ff60043516611224565b34801561072257600080fd5b506102996112c7565b34801561073757600080fd5b50610299611337565b34801561074c57600080fd5b506101786113b2565b34801561076157600080fd5b5061019f6113b8565b34801561077657600080fd5b50610299611401565b34801561078b57600080fd5b506101cb611457565b3480156107a057600080fd5b506102996114b2565b3480156107b557600080fd5b506101cb6114d7565b3480156107ca57600080fd5b506101cb600435611532565b6040805160206004803580820135601f81018490048402850184019095528484526102999436949293602493928401919081908401838280828437509497506115409650505050505050565b60035481565b600a5460ff1681565b600c80548290811061083f57fe5b600091825260209182902001805460408051601f60026000196101006001871615020190941693909304928301859004850281018501909152818152935090918301828280156108d05780601f106108a5576101008083540402835291602001916108d0565b820191906000526020600020905b8154815290600101906020018083116108b357829003601f168201915b505050505081565b60006108e33361164e565b60ff80821660009081526020819052604090206001015491925061010090910416151561090c57fe5b60ff808216600090815260208190526040902060010154161561092b57fe5b60065460ff9081166000908152600d60205260409020600201546101009004161561095257fe5b60065460ff9081166000908152600d602052604090206002015416151560011461097857fe5b60ff8116600090815260208181526040909120835161099f9260029092019185019061199c565b5060ff8082166000908152602081815260408083206001908101805460ff1916821790556006549094168352600d90915290819020905190820180549092829184916002600019918316156101000291909101909116048015610a395780601f10610a17576101008083540402835291820191610a39565b820191906000526020600020905b815481529060010190602001808311610a25575b50509150506040518091039020600019166000808360ff1660ff1681526020019081526020016000206002016040518082805460018160011615610100020316600290048015610ac05780601f10610a9e576101008083540402835291820191610ac0565b820191906000526020600020905b815481529060010190602001808311610aac575b50509150506040518091039020600019161415610b325760ff8181166000908152602081905260409020600301805474ff000000000000000000000000000000000000000019811674010000000000000000000000000000000000000000918290048416600101909316029190911790555b5050565b60016020526000908152604090205460ff1681565b600d6020908152600091825260409182902080548351601f60026000196101006001861615020190931692909204918201849004840281018401909452808452909291839190830182828015610be25780601f10610bb757610100808354040283529160200191610be2565b820191906000526020600020905b815481529060010190602001808311610bc557829003601f168201915b505050505090806001018054600181600116156101000203166002900480601f016020809104026020016040519081016040528092919081815260200182805460018160011615610100020316600290048015610c805780601f10610c5557610100808354040283529160200191610c80565b820191906000526020600020905b815481529060010190602001808311610c6357829003601f168201915b5050506002909301549192505060ff8082169161010090041684565b6002546000908190819033600160a060020a03908116911614610cbe57600080fd5b600a805460ff19166001179055600092508291505b60065460ff61010090910481169083161015610d655760ff828116600090815260208190526040902060030154818516740100000000000000000000000000000000000000009091049091161115610d5a575060ff808216600090815260208190526040902060030154740100000000000000000000000000000000000000009004169150805b600190910190610cd3565b60ff811660009081526020819052604090208054610d989160099160026000196101006001841615020190911604611a1a565b5060055460ff9091166000908152602081905260409020600401555050565b6002805473ffffffffffffffffffffffffffffffffffffffff191633600160a060020a031617905560038390556000610df08383610f06565b50600254600160a060020a03169392505050565b60085460ff1681565b60025460009033600160a060020a03908116911614610e2b57600080fd5b5060065460ff166000908152600d60205260408120600201805461ff0019166101001790555b60065460ff61010090910481169082161015610eb45760ff811660008181526020818152604080832060018101805460ff19169055815180840192839052848152948452929091529151610eab926002909201919061199c565b50600101610e51565b6006805460ff198116600160ff9283160182161791829055600754911610610ee357610ede610c9c565b610eeb565b610eeb6112c7565b50565b60065460ff1681565b600254600160a060020a031681565b60025460009033600160a060020a03908116911614610f2457600080fd5b610f63836040805190810160405280600181526020017f3b0000000000000000000000000000000000000000000000000000000000000081525061166c565b8051610f7791600b91602090910190611a8f565b50610fb7826040805190810160405280600181526020017f3b0000000000000000000000000000000000000000000000000000000000000081525061166c565b8051610fcb91600c91602090910190611a8f565b5050600b546000190160075560005b60075460ff82161161109357600b805460ff8316908110610ff757fe5b6000918252602080832060ff85168452600d90915260409092209101805461103392919060026000196101006001841615020190911604611a1a565b50600c805460ff831690811061104557fe5b90600052602060002001600d60008360ff1660ff168152602001908152602001600020600101908054600181600116156101000203166002900461108a929190611a1a565b50600101610fda565b505050565b600654610100900460ff1681565b60075481565b6000602081815291815260409081902080548251601f6002600019610100600186161502019093169290920491820185900485028101850190935280835290928391908301828280156111405780601f1061111557610100808354040283529160200191611140565b820191906000526020600020905b81548152906001019060200180831161112357829003601f168201915b50505050600183810154600280860180546040805160206101009784161588026000190190931694909404601f8101839004830285018301909152808452969760ff80861698969095049094169550929391929091908301828280156111e75780601f106111bc576101008083540402835291602001916111e7565b820191906000526020600020905b8154815290600101906020018083116111ca57829003601f168201915b5050505060038301546004909301549192600160a060020a038116927401000000000000000000000000000000000000000090910460ff16915087565b60ff81166000908152602081815260409182902080548351601f60026000196101006001861615020190931692909204918201849004840281018401909452808452606093928301828280156112bb5780601f10611290576101008083540402835291602001916112bb565b820191906000526020600020905b81548152906001019060200180831161129e57829003601f168201915b50505050509050919050565b60025433600160a060020a039081169116146112e257600080fd5b6006805460ff9081166000908152600d60205260408082206002908101805460ff191660019081179091559454909316825290208054610eeb9360049360001991831615610100029190910190911604611a1a565b6000806113433361164e565b60ff8116600090815260208190526040812060040154919350909150811161136757fe5b60ff821660009081526020819052604080822060040182905551600160a060020a0333169183156108fc02918491818181858888f19350505050158015611093573d6000803e3d6000fd5b60055481565b60025460009033600160a060020a039081169116146113d657600080fd5b6008805460ff19169055600354600654610100900460ff16026005556113fa6112c7565b5060015b90565b60025433600160a060020a0390811691161461141c57600080fd5b600254604051600160a060020a039182169130163180156108fc02916000818181858888f19350505050158015610eeb573d6000803e3d6000fd5b6009805460408051602060026001851615610100026000190190941693909304601f810184900484028201840190925281815292918301828280156108d05780601f106108a5576101008083540402835291602001916108d0565b60025433600160a060020a039081169116146114cd57600080fd5b6114d56112c7565b565b6004805460408051602060026001851615610100026000190190941693909304601f810184900484028201840190925281815292918301828280156108d05780601f106108a5576101008083540402835291602001916108d0565b600b80548290811061083f57fe5b600654610100900460ff16600090815260208181526040822083516115679285019061199c565b50506006805460ff61010091829004811660009081526020818152604080832060039081018054600160a060020a03331673ffffffffffffffffffffffffffffffffffffffff1990911681179091558754879004861685528285206001908101805461ff00199081168a17909155895492875294819052928520805460ff1916918890048716919091179055865486810486169092019094169094029316929092179092559054340390811115610b3257604051600160a060020a0333169082156108fc029083906000818181858888f19350505050158015611093573d6000803e3d6000fd5b600160a060020a031660009081526001602052604090205460ff1690565b6060611676611ae8565b61167e611ae8565b60006116898661172e565b92506116948561172e565b91506116a6838363ffffffff61175416565b6001016040519080825280602002602001820160405280156116dc57816020015b60608152602001906001900390816116c75790505b509350600090505b835181101561172557611705611700848463ffffffff6117c116565b6117d4565b848281518110151561171357fe5b602090810290910101526001016116e4565b50505092915050565b611736611ae8565b50604080518082019091528151815260209182019181019190915290565b60008082600001516117788560000151866020015186600001518760200151611827565b0190505b835160208501510181116117ba5782516020808601518651918601516001909501946117b2929185039091039084908490611827565b01905061177c565b5092915050565b6117c9611ae8565b6117ba8383836118e7565b606080600083600001516040519080825280601f01601f19166020018201604052801561180b578160200160208202803883390190505b5091506020820190506117ba8185602001518660000151611958565b600083818080808080808c8b116118d15760208b1161189a5760018b60200360080260020a03196001029550858a511694508a8d8d010393508588511692505b8285146118925783881061187f578c8c0198506118d7565b8780600101985050858851169250611867565b8798506118d7565b8a8a209150600096505b8a8d0387116118d15750898720818114156118c1578798506118d7565b60019788019796909601956118a4565b8c8c0198505b5050505050505050949350505050565b6118ef611ae8565b600061190d8560000151866020015186600001518760200151611827565b60208087018051918601919091528051820385528651905191925001811415611939576000855261194f565b8351835186519101900385528351810160208601525b50909392505050565b60005b6020821061197d578251845260209384019390920191601f199091019061195b565b50905182516020929092036101000a6000190180199091169116179052565b828054600181600116156101000203166002900490600052602060002090601f016020900481019282601f106119dd57805160ff1916838001178555611a0a565b82800160010185558215611a0a579182015b82811115611a0a5782518255916020019190600101906119ef565b50611a16929150611aff565b5090565b828054600181600116156101000203166002900490600052602060002090601f016020900481019282601f10611a535780548555611a0a565b82800160010185558215611a0a57600052602060002091601f016020900482015b82811115611a0a578254825591600101919060010190611a74565b828054828255906000526020600020908101928215611adc579160200282015b82811115611adc5782518051611acc91849160209091019061199c565b5091602001919060010190611aaf565b50611a16929150611b19565b604080518082019091526000808252602082015290565b6113fe91905b80821115611a165760008155600101611b05565b6113fe91905b80821115611a16576000611b338282611b3c565b50600101611b1f565b50805460018160011615610100020316600290046000825580601f10611b625750610eeb565b601f016020900490600052602060002090810190610eeb9190611aff5600a165627a7a72305820f37e179863c7a3f3bba7f0cddb4066c582e3c785fdbcc60dd27086fa3cd09aaf0029",
  "source": "pragma solidity ^0.4.21;\n\nimport './strings.sol';\n\ncontract GameSolo{\n\n    using strings for *; //Arachnid library declaration\n\n    struct Rounds {\n        string question;\n        string answer;\n        bool roundStarted;\n        bool roundComplete;\n    }\n\n    struct Player {\n        string playerName;\n        bool hasGuessed;\n        bool isRegistered;\n        string guess;\n        address playerAddress;\n        uint8 score;\n        uint winnings;\n    }\n\n    //bi-directional mapping, since solidity is not great with arrays\n    mapping(uint8 => Player) public players;\n    mapping(address => uint8) public getNumFromAddress;\n\n    address public owner;\n\n    uint public entryFee; //units of wei\n    //!!!!Make Private\n    //string public listQuestions;\n    //string public listHashedAnswers;\n\n    string public currentQuestion;\n    uint public grandPrize;\n    uint8 public currentRound = 0;\n    uint8 public numPlayers;\n    uint public numRounds;\n    bool public registrationOpen = true;\n    string public winnerName;\n    bool public gameEnded;\n\n    //Make private before deploying\n    string[] public arrayQuestions;\n    string[] public arrayHashedAnswers;\n    mapping(uint8 => Rounds) public rounds;\n\n    modifier onlyOwner() {\n        require(msg.sender == owner);  _; }\n\n    function newGame(uint _entryFee, string _listQuestions, string _listHashedAnswers) public returns(address){\n      owner = msg.sender;\n      entryFee = _entryFee;\n      setQuestions(_listQuestions, _listHashedAnswers);\n      return owner;\n    }\n\n    function getPlayerName(uint8 playerID) public view returns(string){ //bool, bool, string, address, uint8, uint){\n      return(players[playerID].playerName);\n    }\n\n    // Lookup a player's number using their address\n    function getPlayersFromAddress(address _addressplayer) view private returns (uint8){\n        return getNumFromAddress[_addressplayer];\n    }\n\n    /// Set the questions and answers\n    function setQuestions(string _questions, string _answers) onlyOwner public {\n        arrayQuestions = convertStringToArray(_questions, \";\");\n        arrayHashedAnswers = convertStringToArray(_answers, \";\");\n        numRounds = arrayQuestions.length-1;\n        for (uint8 y = 0; y <= numRounds; y++){\n            rounds[y].question = arrayQuestions[y];\n            rounds[y].answer = arrayHashedAnswers[y];\n            }\n    }\n\n    function convertStringToArray(string inputString, string deliminator) private returns(string[] parts){\n        var s = inputString.toSlice();\n        var delim = deliminator.toSlice();\n        parts = new string[](s.count(delim) + 1);\n        for(uint i = 0; i < parts.length; i++) {\n            parts[i] = s.split(delim).toString();\n        }\n    }\n\n    /// Register using your name and pay the entry fee\n    function register(string _playerName) payable public {\n        //Check that registration is open\n        //assert(msg.value >= entryFee && registrationOpen);\n        // The first player is player 0\n        players[numPlayers].playerName = _playerName;\n        players[numPlayers].playerAddress = msg.sender;\n        players[numPlayers].isRegistered = true;\n\n        // Create lookup of player's number using their address\n        getNumFromAddress[msg.sender] = numPlayers;\n        numPlayers++;\n\n        // Return funds if the player overpayed\n        uint overPayed = msg.value - entryFee;\n        if (overPayed > 0) { msg.sender.transfer(overPayed); }\n    }\n\n     /// Close registration calculate grand prize, and start the game\n    function startGame() onlyOwner public returns(bool) {\n        registrationOpen = false;\n        grandPrize = numPlayers * entryFee;\n        startNewRound();\n        return true;\n    }\n\n    function startNewRound() onlyOwner public {\n        rounds[currentRound].roundStarted = true;\n        currentQuestion = rounds[currentRound].question;\n    }\n\n    //debugging function- can remove\n    function forceNewRound() onlyOwner public {\n        startNewRound();\n    }\n\n    /// Make your guesss for the current\n    function guess(string _guess) public {\n        // Get the players number and require registration\n        uint8 thisPlayer = getPlayersFromAddress(msg.sender);\n        assert(players[thisPlayer].isRegistered);\n\n        // Ensure the player has not guessed twice,\n        // and that someone has not already won this round\n        assert(players[thisPlayer].hasGuessed == false);\n        assert(rounds[currentRound].roundComplete == false);\n        assert(rounds[currentRound].roundStarted == true);\n        players[thisPlayer].guess = _guess;\n        players[thisPlayer].hasGuessed = true;\n\n        // Add points to winner and reveal the correct answer\n        if (keccak256(players[thisPlayer].guess) == keccak256(rounds[currentRound].answer)) {\n            players[thisPlayer].score++;\n        }\n    }\n\n    function endRound() public onlyOwner {\n        rounds[currentRound].roundComplete = true;\n        for (uint8 y = 0; y < numPlayers; y++) {\n            players[y].hasGuessed = false;\n            players[y].guess = \"\";\n        }\n        currentRound++; // Iterate to the next round\n        if (currentRound >= numRounds) { endGame();\n          }else{\n            startNewRound();\n            } //End the game if necessary\n    }\n\n    // Calculates the winner and assigns the grand prize\n    //note: redundant with endRound()\n    function endGame() onlyOwner public {\n        gameEnded = true;\n        uint8 winningScore = 0;\n\n        for (uint8 y = 0; y < numPlayers; y++) {\n            if (players[y].score > winningScore) {\n                winningScore = players[y].score;\n                uint8 winnerNum = y;\n            }\n        }\n        winnerName = players[winnerNum].playerName;\n        players[winnerNum].winnings = grandPrize;\n    }\n\n    // Requires the winner to withdraw their prize, see why here:\n    // https://blog.ethereum.org/2016/06/10/smart-contract-security/\n    function withdrawWinnings() public {\n        uint8 thisPlayer = getPlayersFromAddress(msg.sender);\n        uint winningSum = players[thisPlayer].winnings;\n        assert(winningSum > 0); //throws exceptions for non-winners\n        players[thisPlayer].winnings = 0; //resets the winnings to 0 (just to be safe?)\n        msg.sender.transfer(winningSum);\n    }\n\n    // Return all funds to owner if things go wrong\n    function reset() public onlyOwner {\n        owner.transfer(this.balance);\n    }\n}\n",
  "sourcePath": "/home/linux/Documents/Repo/hq-on-chain/contracts/GameSolo.sol",
  "compiler": {
    "name": "solc",
    "version": "0.4.23+commit.124ca40d.Emscripten.clang"
  },
  "schemaVersion": "2.0.0",
  "updatedAt": "2018-04-29T08:23:31.748Z"
}