{
  "contractName": "GameSolo",
  "abi": [
    {
      "constant": true,
      "inputs": [],
      "name": "entryFee",
      "outputs": [
        {
          "name": "",
          "type": "uint256"
        }
      ],
      "payable": false,
      "stateMutability": "view",
      "type": "function"
    },
    {
      "constant": true,
      "inputs": [],
      "name": "listQuestions",
      "outputs": [
        {
          "name": "",
          "type": "string"
        }
      ],
      "payable": false,
      "stateMutability": "view",
      "type": "function"
    },
    {
      "constant": true,
      "inputs": [],
      "name": "gameEnded",
      "outputs": [
        {
          "name": "",
          "type": "bool"
        }
      ],
      "payable": false,
      "stateMutability": "view",
      "type": "function"
    },
    {
      "constant": true,
      "inputs": [
        {
          "name": "",
          "type": "uint256"
        }
      ],
      "name": "arrayHashedAnswers",
      "outputs": [
        {
          "name": "",
          "type": "string"
        }
      ],
      "payable": false,
      "stateMutability": "view",
      "type": "function"
    },
    {
      "constant": true,
      "inputs": [
        {
          "name": "",
          "type": "address"
        }
      ],
      "name": "getNumFromAddress",
      "outputs": [
        {
          "name": "",
          "type": "uint8"
        }
      ],
      "payable": false,
      "stateMutability": "view",
      "type": "function"
    },
    {
      "constant": true,
      "inputs": [
        {
          "name": "",
          "type": "uint8"
        }
      ],
      "name": "rounds",
      "outputs": [
        {
          "name": "question",
          "type": "string"
        },
        {
          "name": "answer",
          "type": "string"
        },
        {
          "name": "roundStarted",
          "type": "bool"
        },
        {
          "name": "roundComplete",
          "type": "bool"
        }
      ],
      "payable": false,
      "stateMutability": "view",
      "type": "function"
    },
    {
      "constant": true,
      "inputs": [],
      "name": "registrationOpen",
      "outputs": [
        {
          "name": "",
          "type": "bool"
        }
      ],
      "payable": false,
      "stateMutability": "view",
      "type": "function"
    },
    {
      "constant": true,
      "inputs": [],
      "name": "currentRound",
      "outputs": [
        {
          "name": "",
          "type": "uint8"
        }
      ],
      "payable": false,
      "stateMutability": "view",
      "type": "function"
    },
    {
      "constant": true,
      "inputs": [],
      "name": "owner",
      "outputs": [
        {
          "name": "",
          "type": "address"
        }
      ],
      "payable": false,
      "stateMutability": "view",
      "type": "function"
    },
    {
      "constant": true,
      "inputs": [],
      "name": "numPlayers",
      "outputs": [
        {
          "name": "",
          "type": "uint8"
        }
      ],
      "payable": false,
      "stateMutability": "view",
      "type": "function"
    },
    {
      "constant": true,
      "inputs": [],
      "name": "numRounds",
      "outputs": [
        {
          "name": "",
          "type": "uint256"
        }
      ],
      "payable": false,
      "stateMutability": "view",
      "type": "function"
    },
    {
      "constant": true,
      "inputs": [
        {
          "name": "",
          "type": "uint8"
        }
      ],
      "name": "players",
      "outputs": [
        {
          "name": "playerName",
          "type": "string"
        },
        {
          "name": "hasGuessed",
          "type": "bool"
        },
        {
          "name": "isRegistered",
          "type": "bool"
        },
        {
          "name": "guess",
          "type": "string"
        },
        {
          "name": "playerAddress",
          "type": "address"
        },
        {
          "name": "score",
          "type": "uint8"
        },
        {
          "name": "winnings",
          "type": "uint256"
        }
      ],
      "payable": false,
      "stateMutability": "view",
      "type": "function"
    },
    {
      "constant": true,
      "inputs": [],
      "name": "grandPrize",
      "outputs": [
        {
          "name": "",
          "type": "uint256"
        }
      ],
      "payable": false,
      "stateMutability": "view",
      "type": "function"
    },
    {
      "constant": true,
      "inputs": [],
      "name": "winnerName",
      "outputs": [
        {
          "name": "",
          "type": "string"
        }
      ],
      "payable": false,
      "stateMutability": "view",
      "type": "function"
    },
    {
      "constant": true,
      "inputs": [],
      "name": "currentQuestion",
      "outputs": [
        {
          "name": "",
          "type": "string"
        }
      ],
      "payable": false,
      "stateMutability": "view",
      "type": "function"
    },
    {
      "constant": true,
      "inputs": [],
      "name": "listHashedAnswers",
      "outputs": [
        {
          "name": "",
          "type": "string"
        }
      ],
      "payable": false,
      "stateMutability": "view",
      "type": "function"
    },
    {
      "constant": true,
      "inputs": [
        {
          "name": "",
          "type": "uint256"
        }
      ],
      "name": "arrayQuestions",
      "outputs": [
        {
          "name": "",
          "type": "string"
        }
      ],
      "payable": false,
      "stateMutability": "view",
      "type": "function"
    },
    {
      "constant": false,
      "inputs": [
        {
          "name": "_entryFee",
          "type": "uint256"
        },
        {
          "name": "_listQuestions",
          "type": "string"
        },
        {
          "name": "_listHashedAnswers",
          "type": "string"
        }
      ],
      "name": "newGame",
      "outputs": [],
      "payable": false,
      "stateMutability": "nonpayable",
      "type": "function"
    },
    {
      "constant": true,
      "inputs": [
        {
          "name": "playerID",
          "type": "uint8"
        }
      ],
      "name": "getPlayerName",
      "outputs": [
        {
          "name": "",
          "type": "string"
        }
      ],
      "payable": false,
      "stateMutability": "view",
      "type": "function"
    },
    {
      "constant": false,
      "inputs": [
        {
          "name": "_questions",
          "type": "string"
        },
        {
          "name": "_answers",
          "type": "string"
        }
      ],
      "name": "setQuestions",
      "outputs": [],
      "payable": false,
      "stateMutability": "nonpayable",
      "type": "function"
    },
    {
      "constant": false,
      "inputs": [
        {
          "name": "_playerName",
          "type": "string"
        }
      ],
      "name": "register",
      "outputs": [],
      "payable": true,
      "stateMutability": "payable",
      "type": "function"
    },
    {
      "constant": false,
      "inputs": [],
      "name": "startGame",
      "outputs": [
        {
          "name": "",
          "type": "bool"
        }
      ],
      "payable": false,
      "stateMutability": "nonpayable",
      "type": "function"
    },
    {
      "constant": false,
      "inputs": [],
      "name": "startNewRound",
      "outputs": [],
      "payable": false,
      "stateMutability": "nonpayable",
      "type": "function"
    },
    {
      "constant": false,
      "inputs": [],
      "name": "forceNewRound",
      "outputs": [],
      "payable": false,
      "stateMutability": "nonpayable",
      "type": "function"
    },
    {
      "constant": false,
      "inputs": [
        {
          "name": "_guess",
          "type": "string"
        }
      ],
      "name": "guess",
      "outputs": [],
      "payable": false,
      "stateMutability": "nonpayable",
      "type": "function"
    },
    {
      "constant": false,
      "inputs": [],
      "name": "endRound",
      "outputs": [],
      "payable": false,
      "stateMutability": "nonpayable",
      "type": "function"
    },
    {
      "constant": false,
      "inputs": [],
      "name": "endGame",
      "outputs": [],
      "payable": false,
      "stateMutability": "nonpayable",
      "type": "function"
    },
    {
      "constant": false,
      "inputs": [],
      "name": "withdrawWinnings",
      "outputs": [],
      "payable": false,
      "stateMutability": "nonpayable",
      "type": "function"
    },
    {
      "constant": false,
      "inputs": [],
      "name": "reset",
      "outputs": [],
      "payable": false,
      "stateMutability": "nonpayable",
      "type": "function"
    }
  ],
  "bytecode": "0x60806040526008805460ff19908116909155600a8054909116600117905534801561002957600080fd5b50611d4e806100396000396000f3006080604052600436106101745763ffffffff7c0100000000000000000000000000000000000000000000000000000000600035041663072ea61c81146101795780632503059e146101a05780632f6fe3961461022a5780634b3055de146102535780634eee59b31461026b57806356f58538146102c65780635d7984d3146102fd5780636cbc2ded146104085780637045c8d31461041d578063736f88cd146104b9578063749aa2d9146104ce5780638a19c8bc146104e35780638da5cb5b146104f85780639140bd711461052957806397b2f556146105c05780639d78325d146105d5578063af155a44146105ea578063b8ef455c14610726578063bd85948c14610741578063cc42e83a14610756578063ce76c5ca1461076b578063d65ab5f214610780578063d826f88f14610795578063e2ba53f0146107aa578063e4fc0d7f146107bf578063e7dea022146107d4578063eac046b0146107e9578063eb314eb1146107fe578063f2c298be14610816575b600080fd5b34801561018557600080fd5b5061018e610862565b60408051918252519081900360200190f35b3480156101ac57600080fd5b506101b5610868565b6040805160208082528351818301528351919283929083019185019080838360005b838110156101ef5781810151838201526020016101d7565b50505050905090810190601f16801561021c5780820380516001836020036101000a031916815260200191505b509250505060405180910390f35b34801561023657600080fd5b5061023f6108f6565b604080519115158252519081900360200190f35b34801561025f57600080fd5b506101b56004356108ff565b34801561027757600080fd5b506040805160206004803580820135601f81018490048402850184019095528484526102c49436949293602493928401919081908401838280828437509497506109739650505050505050565b005b3480156102d257600080fd5b506102e7600160a060020a0360043516610bd1565b6040805160ff9092168252519081900360200190f35b34801561030957600080fd5b5061031860ff60043516610be6565b6040805183151591810191909152811515606082015260808082528551908201528451819060208083019160a084019189019080838360005b83811015610369578181015183820152602001610351565b50505050905090810190601f1680156103965780820380516001836020036101000a031916815260200191505b50838103825286518152865160209182019188019080838360005b838110156103c95781810151838201526020016103b1565b50505050905090810190601f1680156103f65780820380516001836020036101000a031916815260200191505b50965050505050505060405180910390f35b34801561041457600080fd5b506102c4610d37565b34801561042957600080fd5b5060408051602060046024803582810135601f81018590048502860185019096528585526102c495833595369560449491939091019190819084018382808284375050604080516020601f89358b018035918201839004830284018301909452808352979a999881019791965091820194509250829150840183828082843750949750610e529650505050505050565b3480156104c557600080fd5b5061023f610e8e565b3480156104da57600080fd5b506102c4610e97565b3480156104ef57600080fd5b506102e7610f6b565b34801561050457600080fd5b5061050d610f74565b60408051600160a060020a039092168252519081900360200190f35b34801561053557600080fd5b506040805160206004803580820135601f81018490048402850184019095528484526102c494369492936024939284019190819084018382808284375050604080516020601f89358b018035918201839004830284018301909452808352979a999881019791965091820194509250829150840183828082843750949750610f839650505050505050565b3480156105cc57600080fd5b506102e76110ba565b3480156105e157600080fd5b5061018e6110c8565b3480156105f657600080fd5b5061060560ff600435166110ce565b604051808060200188151515158152602001871515151581526020018060200186600160a060020a0316600160a060020a031681526020018560ff1660ff16815260200184815260200183810383528a818151815260200191508051906020019080838360005b8381101561068457818101518382015260200161066c565b50505050905090810190601f1680156106b15780820380516001836020036101000a031916815260200191505b50838103825287518152875160209182019189019080838360005b838110156106e45781810151838201526020016106cc565b50505050905090810190601f1680156107115780820380516001836020036101000a031916815260200191505b50995050505050505050505060405180910390f35b34801561073257600080fd5b506101b560ff60043516611246565b34801561074d57600080fd5b506102c46112e9565b34801561076257600080fd5b506102c4611359565b34801561077757600080fd5b5061018e6113d4565b34801561078c57600080fd5b5061023f6113da565b3480156107a157600080fd5b506102c4611548565b3480156107b657600080fd5b506101b561159e565b3480156107cb57600080fd5b506102c46115f9565b3480156107e057600080fd5b506101b561161e565b3480156107f557600080fd5b506101b5611679565b34801561080a57600080fd5b506101b56004356116d4565b6040805160206004803580820135601f81018490048402850184019095528484526102c49436949293602493928401919081908401838280828437509497506116e29650505050505050565b60035481565b6004805460408051602060026001851615610100026000190190941693909304601f810184900484028201840190925281815292918301828280156108ee5780601f106108c3576101008083540402835291602001916108ee565b820191906000526020600020905b8154815290600101906020018083116108d157829003601f168201915b505050505081565b600c5460ff1681565b600e80548290811061090d57fe5b600091825260209182902001805460408051601f60026000196101006001871615020190941693909304928301859004850281018501909152818152935090918301828280156108ee5780601f106108c3576101008083540402835291602001916108ee565b600061097e336117f0565b60ff8082166000908152602081905260409020600101549192506101009091041615156109a757fe5b60ff80821660009081526020819052604090206001015416156109c657fe5b60085460ff9081166000908152600f6020526040902060020154610100900416156109ed57fe5b60085460ff9081166000908152600f6020526040902060020154161515600114610a1357fe5b60ff81166000908152602081815260409091208351610a3a92600290920191850190611b3e565b5060ff8082166000908152602081815260408083206001908101805460ff1916821790556008549094168352600f90915290819020905190820180549092829184916002600019918316156101000291909101909116048015610ad45780601f10610ab2576101008083540402835291820191610ad4565b820191906000526020600020905b815481529060010190602001808311610ac0575b50509150506040518091039020600019166000808360ff1660ff1681526020019081526020016000206002016040518082805460018160011615610100020316600290048015610b5b5780601f10610b39576101008083540402835291820191610b5b565b820191906000526020600020905b815481529060010190602001808311610b47575b50509150506040518091039020600019161415610bcd5760ff8181166000908152602081905260409020600301805474ff000000000000000000000000000000000000000019811674010000000000000000000000000000000000000000918290048416600101909316029190911790555b5050565b60016020526000908152604090205460ff1681565b600f6020908152600091825260409182902080548351601f60026000196101006001861615020190931692909204918201849004840281018401909452808452909291839190830182828015610c7d5780601f10610c5257610100808354040283529160200191610c7d565b820191906000526020600020905b815481529060010190602001808311610c6057829003601f168201915b505050505090806001018054600181600116156101000203166002900480601f016020809104026020016040519081016040528092919081815260200182805460018160011615610100020316600290048015610d1b5780601f10610cf057610100808354040283529160200191610d1b565b820191906000526020600020905b815481529060010190602001808311610cfe57829003601f168201915b5050506002909301549192505060ff8082169161010090041684565b6002546000908190819033600160a060020a03908116911614610d5957600080fd5b600c805460ff19166001179055600092508291505b60085460ff61010090910481169083161015610e005760ff828116600090815260208190526040902060030154818516740100000000000000000000000000000000000000009091049091161115610df5575060ff808216600090815260208190526040902060030154740100000000000000000000000000000000000000009004169150805b600190910190610d6e565b60ff811660009081526020819052604090208054610e3391600b9160026000196101006001841615020190911604611bbc565b5060075460ff9091166000908152602081905260409020600401555050565b6002805473ffffffffffffffffffffffffffffffffffffffff191633600160a060020a03161790556003839055610e898282610f83565b505050565b600a5460ff1681565b60025460009033600160a060020a03908116911614610eb557600080fd5b5060085460ff166000908152600f60205260408120600201805461ff0019166101001790555b60085460ff61010090910481169082161015610f3e5760ff811660008181526020818152604080832060018101805460ff19169055815180840192839052848152948452929091529151610f359260029092019190611b3e565b50600101610edb565b6008805460ff198116600160ff9283160182161791829055600954911610610f6857610f68610d37565b50565b60085460ff1681565b600254600160a060020a031681565b60025460009033600160a060020a03908116911614610fa157600080fd5b610fe0836040805190810160405280600181526020017f3b0000000000000000000000000000000000000000000000000000000000000081525061180e565b8051610ff491600d91602090910190611c31565b50611034826040805190810160405280600181526020017f3b0000000000000000000000000000000000000000000000000000000000000081525061180e565b805161104891600e91602090910190611c31565b5050600d546000190160095560005b6009548160ff161015610e8957600d805460ff831690811061107557fe5b6000918252602080832060ff85168452600f9091526040909220910180546110b192919060026000196101006001841615020190911604611bbc565b50600101611057565b600854610100900460ff1681565b60095481565b6000602081815291815260409081902080548251601f6002600019610100600186161502019093169290920491820185900485028101850190935280835290928391908301828280156111625780601f1061113757610100808354040283529160200191611162565b820191906000526020600020905b81548152906001019060200180831161114557829003601f168201915b50505050600183810154600280860180546040805160206101009784161588026000190190931694909404601f8101839004830285018301909152808452969760ff80861698969095049094169550929391929091908301828280156112095780601f106111de57610100808354040283529160200191611209565b820191906000526020600020905b8154815290600101906020018083116111ec57829003601f168201915b5050505060038301546004909301549192600160a060020a038116927401000000000000000000000000000000000000000090910460ff16915087565b60ff81166000908152602081815260409182902080548351601f60026000196101006001861615020190931692909204918201849004840281018401909452808452606093928301828280156112dd5780601f106112b2576101008083540402835291602001916112dd565b820191906000526020600020905b8154815290600101906020018083116112c057829003601f168201915b50505050509050919050565b60025433600160a060020a0390811691161461130457600080fd5b6008805460ff9081166000908152600f60205260408082206002908101805460ff191660019081179091559454909316825290208054610f689360069360001991831615610100029190910190911604611bbc565b600080611365336117f0565b60ff8116600090815260208190526040812060040154919350909150811161138957fe5b60ff821660009081526020819052604080822060040182905551600160a060020a0333169183156108fc02918491818181858888f19350505050158015610e89573d6000803e3d6000fd5b60075481565b60025460009033600160a060020a039081169116146113f857600080fd5b600a805460ff1916905560035460085460ff610100918290041690910260075560048054604080516020600260018516159096026000190190931694909404601f81018390048302850183019091528084526115399392918301828280156114a15780601f10611476576101008083540402835291602001916114a1565b820191906000526020600020905b81548152906001019060200180831161148457829003601f168201915b505060058054604080516020601f600260001961010060018816150201909516949094049384018190048102820181019092528281529550919350915083018282801561152f5780601f106115045761010080835404028352916020019161152f565b820191906000526020600020905b81548152906001019060200180831161151257829003601f168201915b5050505050610f83565b6115416112e9565b5060015b90565b60025433600160a060020a0390811691161461156357600080fd5b600254604051600160a060020a039182169130163180156108fc02916000818181858888f19350505050158015610f68573d6000803e3d6000fd5b600b805460408051602060026001851615610100026000190190941693909304601f810184900484028201840190925281815292918301828280156108ee5780601f106108c3576101008083540402835291602001916108ee565b60025433600160a060020a0390811691161461161457600080fd5b61161c6112e9565b565b6006805460408051602060026001851615610100026000190190941693909304601f810184900484028201840190925281815292918301828280156108ee5780601f106108c3576101008083540402835291602001916108ee565b6005805460408051602060026001851615610100026000190190941693909304601f810184900484028201840190925281815292918301828280156108ee5780601f106108c3576101008083540402835291602001916108ee565b600d80548290811061090d57fe5b600854610100900460ff166000908152602081815260408220835161170992850190611b3e565b50506008805460ff61010091829004811660009081526020818152604080832060039081018054600160a060020a03331673ffffffffffffffffffffffffffffffffffffffff1990911681179091558754879004861685528285206001908101805461ff00199081168a17909155895492875294819052928520805460ff1916918890048716919091179055865486810486169092019094169094029316929092179092559054340390811115610bcd57604051600160a060020a0333169082156108fc029083906000818181858888f19350505050158015610e89573d6000803e3d6000fd5b600160a060020a031660009081526001602052604090205460ff1690565b6060611818611c8a565b611820611c8a565b600061182b866118d0565b9250611836856118d0565b9150611848838363ffffffff6118f616565b60010160405190808252806020026020018201604052801561187e57816020015b60608152602001906001900390816118695790505b509350600090505b83518110156118c7576118a76118a2848463ffffffff61196316565b611976565b84828151811015156118b557fe5b60209081029091010152600101611886565b50505092915050565b6118d8611c8a565b50604080518082019091528151815260209182019181019190915290565b600080826000015161191a85600001518660200151866000015187602001516119c9565b0190505b8351602085015101811161195c5782516020808601518651918601516001909501946119549291850390910390849084906119c9565b01905061191e565b5092915050565b61196b611c8a565b61195c838383611a89565b606080600083600001516040519080825280601f01601f1916602001820160405280156119ad578160200160208202803883390190505b50915060208201905061195c8185602001518660000151611afa565b600083818080808080808c8b11611a735760208b11611a3c5760018b60200360080260020a03196001029550858a511694508a8d8d010393508588511692505b828514611a3457838810611a21578c8c019850611a79565b8780600101985050858851169250611a09565b879850611a79565b8a8a209150600096505b8a8d038711611a73575089872081811415611a6357879850611a79565b6001978801979690960195611a46565b8c8c0198505b5050505050505050949350505050565b611a91611c8a565b6000611aaf85600001518660200151866000015187602001516119c9565b60208087018051918601919091528051820385528651905191925001811415611adb5760008552611af1565b8351835186519101900385528351810160208601525b50909392505050565b60005b60208210611b1f578251845260209384019390920191601f1990910190611afd565b50905182516020929092036101000a6000190180199091169116179052565b828054600181600116156101000203166002900490600052602060002090601f016020900481019282601f10611b7f57805160ff1916838001178555611bac565b82800160010185558215611bac579182015b82811115611bac578251825591602001919060010190611b91565b50611bb8929150611ca1565b5090565b828054600181600116156101000203166002900490600052602060002090601f016020900481019282601f10611bf55780548555611bac565b82800160010185558215611bac57600052602060002091601f016020900482015b82811115611bac578254825591600101919060010190611c16565b828054828255906000526020600020908101928215611c7e579160200282015b82811115611c7e5782518051611c6e918491602090910190611b3e565b5091602001919060010190611c51565b50611bb8929150611cbb565b604080518082019091526000808252602082015290565b61154591905b80821115611bb85760008155600101611ca7565b61154591905b80821115611bb8576000611cd58282611cde565b50600101611cc1565b50805460018160011615610100020316600290046000825580601f10611d045750610f68565b601f016020900490600052602060002090810190610f689190611ca15600a165627a7a723058209b315f9afc2d7ffd00a4d9c0399c0ad6efe2129c09c6dd4371897e816d56edea0029",
  "source": "pragma solidity ^0.4.21;\n\nimport './strings.sol';\n\ncontract GameSolo{\n\n    using strings for *; //Arachnid library declaration\n\n    struct Rounds {\n        string question;\n        string answer;\n        bool roundStarted;\n        bool roundComplete;\n    }\n\n    struct Player {\n        string playerName;\n        bool hasGuessed;\n        bool isRegistered;\n        string guess;\n        address playerAddress;\n        uint8 score;\n        uint winnings;\n    }\n\n    //bi-directional mapping, since solidity is not great with arrays\n    mapping(uint8 => Player) public players;\n    mapping(address => uint8) public getNumFromAddress;\n\n    address public owner;\n\n    uint public entryFee; //units of wei\n    //!!!!Make Private\n    string public listQuestions;\n    string public listHashedAnswers;\n\n    string public currentQuestion;\n    uint public grandPrize;\n    uint8 public currentRound = 0;\n    uint8 public numPlayers;\n    uint public numRounds;\n    bool public registrationOpen = true;\n    string public winnerName;\n    bool public gameEnded;\n\n    //Make private before deploying\n    string[] public arrayQuestions;\n    string[] public arrayHashedAnswers;\n    mapping(uint8 => Rounds) public rounds;\n\n    modifier onlyOwner() {\n        require(msg.sender == owner);  _; }\n\n    function newGame(uint _entryFee, string _listQuestions, string _listHashedAnswers) public {\n      owner = msg.sender;\n      entryFee = _entryFee;\n      setQuestions(_listQuestions, _listHashedAnswers);\n    }\n\n    function getPlayerName(uint8 playerID) public view returns(string){ //bool, bool, string, address, uint8, uint){\n      return(players[playerID].playerName);\n    }\n\n    // Lookup a player's number using their address\n    function getPlayersFromAddress(address _addressplayer) view private returns (uint8){\n        return getNumFromAddress[_addressplayer];\n    }\n\n    /// Set the questions and answers\n    function setQuestions(string _questions, string _answers) onlyOwner public {\n        arrayQuestions = convertStringToArray(_questions, \";\");\n        arrayHashedAnswers = convertStringToArray(_answers, \";\");\n        numRounds = arrayQuestions.length-1;\n        for (uint8 y = 0; y < numRounds; y++){\n            rounds[y].question = arrayQuestions[y];\n            }\n    }\n\n    function convertStringToArray(string inputString, string deliminator) private returns(string[] parts){\n        var s = inputString.toSlice();\n        var delim = deliminator.toSlice();\n        parts = new string[](s.count(delim) + 1);\n        for(uint i = 0; i < parts.length; i++) {\n            parts[i] = s.split(delim).toString();\n        }\n    }\n\n    /// Register using your name and pay the entry fee\n    function register(string _playerName) payable public {\n        //Check that registration is open\n        //assert(msg.value >= entryFee && registrationOpen);\n        // The first player is player 0\n        players[numPlayers].playerName = _playerName;\n        players[numPlayers].playerAddress = msg.sender;\n        players[numPlayers].isRegistered = true;\n\n        // Create lookup of player's number using their address\n        getNumFromAddress[msg.sender] = numPlayers;\n        numPlayers++;\n\n        // Return funds if the player overpayed\n        uint overPayed = msg.value - entryFee;\n        if (overPayed > 0) { msg.sender.transfer(overPayed); }\n    }\n\n     /// Close registration calculate grand prize, and start the game\n    function startGame() onlyOwner public returns(bool) {\n        registrationOpen = false;\n        grandPrize = numPlayers * entryFee;\n        setQuestions(listQuestions, listHashedAnswers);\n        startNewRound();\n        return true;\n    }\n\n    function startNewRound() onlyOwner public {\n        rounds[currentRound].roundStarted = true;\n        currentQuestion = rounds[currentRound].question;\n    }\n\n    //debugging function- can remove\n    function forceNewRound() onlyOwner public {\n        startNewRound();\n    }\n\n    /// Make your guesss for the current\n    function guess(string _guess) public {\n        // Get the players number and require registration\n        uint8 thisPlayer = getPlayersFromAddress(msg.sender);\n        assert(players[thisPlayer].isRegistered);\n\n        // Ensure the player has not guessed twice,\n        // and that someone has not already won this round\n        assert(players[thisPlayer].hasGuessed == false);\n        assert(rounds[currentRound].roundComplete == false);\n        assert(rounds[currentRound].roundStarted == true);\n        players[thisPlayer].guess = _guess;\n        players[thisPlayer].hasGuessed = true;\n\n        // Add points to winner and reveal the correct answer\n        if (keccak256(players[thisPlayer].guess) == keccak256(rounds[currentRound].answer)) {\n            players[thisPlayer].score++;\n        }\n    }\n\n    function endRound() public onlyOwner {\n        rounds[currentRound].roundComplete = true;\n        for (uint8 y = 0; y < numPlayers; y++) {\n            players[y].hasGuessed = false;\n            players[y].guess = \"\";\n        }\n        currentRound++; // Iterate to the next round\n        if (currentRound >= numRounds) { endGame(); } //End the game if necessary\n    }\n\n    // Calculates the winner and assigns the grand prize\n    //note: redundant with endRound()\n    function endGame() onlyOwner public {\n        gameEnded = true;\n        uint8 winningScore = 0;\n\n        for (uint8 y = 0; y < numPlayers; y++) {\n            if (players[y].score > winningScore) {\n                winningScore = players[y].score;\n                uint8 winnerNum = y;\n            }\n        }\n        winnerName = players[winnerNum].playerName;\n        players[winnerNum].winnings = grandPrize;\n    }\n\n    // Requires the winner to withdraw their prize, see why here:\n    // https://blog.ethereum.org/2016/06/10/smart-contract-security/\n    function withdrawWinnings() public {\n        uint8 thisPlayer = getPlayersFromAddress(msg.sender);\n        uint winningSum = players[thisPlayer].winnings;\n        assert(winningSum > 0); //throws exceptions for non-winners\n        players[thisPlayer].winnings = 0; //resets the winnings to 0 (just to be safe?)\n        msg.sender.transfer(winningSum);\n    }\n\n    // Return all funds to owner if things go wrong\n    function reset() public onlyOwner {\n        owner.transfer(this.balance);\n    }\n}\n",
  "sourcePath": "/home/linux/Documents/Repo/hq-on-chain/contracts/GameSolo.sol",
  "compiler": {
    "name": "solc",
    "version": "0.4.23+commit.124ca40d.Emscripten.clang"
  },
  "schemaVersion": "2.0.0",
  "updatedAt": "2018-04-29T05:07:20.798Z"
}