{
  "contractName": "Game",
  "abi": [
    {
      "constant": true,
      "inputs": [],
      "name": "entryFee",
      "outputs": [
        {
          "name": "",
          "type": "uint256"
        }
      ],
      "payable": false,
      "stateMutability": "view",
      "type": "function"
    },
    {
      "constant": true,
      "inputs": [],
      "name": "listQuestions",
      "outputs": [
        {
          "name": "",
          "type": "string"
        }
      ],
      "payable": false,
      "stateMutability": "view",
      "type": "function"
    },
    {
      "constant": true,
      "inputs": [],
      "name": "gameEnded",
      "outputs": [
        {
          "name": "",
          "type": "bool"
        }
      ],
      "payable": false,
      "stateMutability": "view",
      "type": "function"
    },
    {
      "constant": true,
      "inputs": [
        {
          "name": "",
          "type": "uint256"
        }
      ],
      "name": "arrayHashedAnswers",
      "outputs": [
        {
          "name": "",
          "type": "string"
        }
      ],
      "payable": false,
      "stateMutability": "view",
      "type": "function"
    },
    {
      "constant": true,
      "inputs": [
        {
          "name": "",
          "type": "address"
        }
      ],
      "name": "getNumFromAddress",
      "outputs": [
        {
          "name": "",
          "type": "uint8"
        }
      ],
      "payable": false,
      "stateMutability": "view",
      "type": "function"
    },
    {
      "constant": true,
      "inputs": [
        {
          "name": "",
          "type": "uint8"
        }
      ],
      "name": "rounds",
      "outputs": [
        {
          "name": "question",
          "type": "string"
        },
        {
          "name": "answer",
          "type": "string"
        },
        {
          "name": "roundStarted",
          "type": "bool"
        },
        {
          "name": "roundComplete",
          "type": "bool"
        }
      ],
      "payable": false,
      "stateMutability": "view",
      "type": "function"
    },
    {
      "constant": true,
      "inputs": [],
      "name": "registrationOpen",
      "outputs": [
        {
          "name": "",
          "type": "bool"
        }
      ],
      "payable": false,
      "stateMutability": "view",
      "type": "function"
    },
    {
      "constant": true,
      "inputs": [],
      "name": "currentAnswer",
      "outputs": [
        {
          "name": "",
          "type": "string"
        }
      ],
      "payable": false,
      "stateMutability": "view",
      "type": "function"
    },
    {
      "constant": true,
      "inputs": [],
      "name": "currentRound",
      "outputs": [
        {
          "name": "",
          "type": "uint8"
        }
      ],
      "payable": false,
      "stateMutability": "view",
      "type": "function"
    },
    {
      "constant": true,
      "inputs": [],
      "name": "owner",
      "outputs": [
        {
          "name": "",
          "type": "address"
        }
      ],
      "payable": false,
      "stateMutability": "view",
      "type": "function"
    },
    {
      "constant": true,
      "inputs": [],
      "name": "numPlayers",
      "outputs": [
        {
          "name": "",
          "type": "uint8"
        }
      ],
      "payable": false,
      "stateMutability": "view",
      "type": "function"
    },
    {
      "constant": true,
      "inputs": [],
      "name": "numRounds",
      "outputs": [
        {
          "name": "",
          "type": "uint256"
        }
      ],
      "payable": false,
      "stateMutability": "view",
      "type": "function"
    },
    {
      "constant": true,
      "inputs": [
        {
          "name": "",
          "type": "uint8"
        }
      ],
      "name": "players",
      "outputs": [
        {
          "name": "playerName",
          "type": "string"
        },
        {
          "name": "hasGuessed",
          "type": "bool"
        },
        {
          "name": "isRegistered",
          "type": "bool"
        },
        {
          "name": "guess",
          "type": "string"
        },
        {
          "name": "playerAddress",
          "type": "address"
        },
        {
          "name": "score",
          "type": "uint8"
        },
        {
          "name": "winnings",
          "type": "uint256"
        }
      ],
      "payable": false,
      "stateMutability": "view",
      "type": "function"
    },
    {
      "constant": true,
      "inputs": [],
      "name": "grandPrize",
      "outputs": [
        {
          "name": "",
          "type": "uint256"
        }
      ],
      "payable": false,
      "stateMutability": "view",
      "type": "function"
    },
    {
      "constant": true,
      "inputs": [],
      "name": "winnerName",
      "outputs": [
        {
          "name": "",
          "type": "string"
        }
      ],
      "payable": false,
      "stateMutability": "view",
      "type": "function"
    },
    {
      "constant": true,
      "inputs": [],
      "name": "currentQuestion",
      "outputs": [
        {
          "name": "",
          "type": "string"
        }
      ],
      "payable": false,
      "stateMutability": "view",
      "type": "function"
    },
    {
      "constant": true,
      "inputs": [],
      "name": "listHashedAnswers",
      "outputs": [
        {
          "name": "",
          "type": "string"
        }
      ],
      "payable": false,
      "stateMutability": "view",
      "type": "function"
    },
    {
      "constant": true,
      "inputs": [
        {
          "name": "",
          "type": "uint256"
        }
      ],
      "name": "arrayQuestions",
      "outputs": [
        {
          "name": "",
          "type": "string"
        }
      ],
      "payable": false,
      "stateMutability": "view",
      "type": "function"
    },
    {
      "inputs": [
        {
          "name": "_owner",
          "type": "address"
        },
        {
          "name": "_entryFee",
          "type": "uint256"
        },
        {
          "name": "_listQuestions",
          "type": "string"
        },
        {
          "name": "_listHashedAnswers",
          "type": "string"
        }
      ],
      "payable": false,
      "stateMutability": "nonpayable",
      "type": "constructor"
    },
    {
      "constant": false,
      "inputs": [
        {
          "name": "_entryFeeInFinney",
          "type": "uint256"
        }
      ],
      "name": "newGame",
      "outputs": [],
      "payable": false,
      "stateMutability": "nonpayable",
      "type": "function"
    },
    {
      "constant": false,
      "inputs": [
        {
          "name": "_questions",
          "type": "string"
        },
        {
          "name": "_answers",
          "type": "string"
        }
      ],
      "name": "setQuestions",
      "outputs": [],
      "payable": false,
      "stateMutability": "nonpayable",
      "type": "function"
    },
    {
      "constant": false,
      "inputs": [
        {
          "name": "_playerName",
          "type": "string"
        }
      ],
      "name": "register",
      "outputs": [],
      "payable": true,
      "stateMutability": "payable",
      "type": "function"
    },
    {
      "constant": false,
      "inputs": [],
      "name": "startGame",
      "outputs": [],
      "payable": false,
      "stateMutability": "nonpayable",
      "type": "function"
    },
    {
      "constant": false,
      "inputs": [],
      "name": "forceNewRound",
      "outputs": [],
      "payable": false,
      "stateMutability": "nonpayable",
      "type": "function"
    },
    {
      "constant": false,
      "inputs": [
        {
          "name": "_guess",
          "type": "string"
        }
      ],
      "name": "guess",
      "outputs": [],
      "payable": false,
      "stateMutability": "nonpayable",
      "type": "function"
    },
    {
      "constant": false,
      "inputs": [],
      "name": "endRound",
      "outputs": [],
      "payable": false,
      "stateMutability": "nonpayable",
      "type": "function"
    },
    {
      "constant": false,
      "inputs": [],
      "name": "endGame",
      "outputs": [],
      "payable": false,
      "stateMutability": "nonpayable",
      "type": "function"
    },
    {
      "constant": false,
      "inputs": [],
      "name": "withdrawWinnings",
      "outputs": [],
      "payable": false,
      "stateMutability": "nonpayable",
      "type": "function"
    },
    {
      "constant": false,
      "inputs": [],
      "name": "reset",
      "outputs": [],
      "payable": false,
      "stateMutability": "nonpayable",
      "type": "function"
    }
  ],
  "bytecode": "0x60806040523480156200001157600080fd5b5060405162001d7f38038062001d7f833981016040908152815160208084015192840151606085015160058054600160a060020a031916600160a060020a0386161790556004859055908501805193959093910191620000779160029185019062000098565b5080516200008d90600390602084019062000098565b50505050506200013d565b828054600181600116156101000203166002900490600052602060002090601f016020900481019282601f10620000db57805160ff19168380011785556200010b565b828001600101855582156200010b579182015b828111156200010b578251825591602001919060010190620000ee565b50620001199291506200011d565b5090565b6200013a91905b8082111562000119576000815560010162000124565b90565b611c32806200014d6000396000f3006080604052600436106101695763ffffffff7c0100000000000000000000000000000000000000000000000000000000600035041663072ea61c811461016e5780632503059e146101955780632f6fe3961461021f5780634b3055de146102485780634eee59b31461026057806356f58538146102bb5780635d7984d3146102f25780636cbc2ded146103fd578063736f88cd14610412578063749aa2d9146104275780637e1b4cb01461043c5780638a19c8bc146104515780638da5cb5b146104665780639140bd711461049757806397b2f5561461052e5780639d78325d14610543578063af155a4414610558578063cc42e83a14610694578063cde9ef78146106a9578063ce76c5ca146106c1578063d65ab5f2146106d6578063d826f88f146106eb578063e2ba53f014610700578063e4fc0d7f14610715578063e7dea0221461072a578063eac046b01461073f578063eb314eb114610754578063f2c298be1461076c575b600080fd5b34801561017a57600080fd5b506101836107b8565b60408051918252519081900360200190f35b3480156101a157600080fd5b506101aa6107be565b6040805160208082528351818301528351919283929083019185019080838360005b838110156101e45781810151838201526020016101cc565b50505050905090810190601f1680156102115780820380516001836020036101000a031916815260200191505b509250505060405180910390f35b34801561022b57600080fd5b50610234610849565b604080519115158252519081900360200190f35b34801561025457600080fd5b506101aa600435610852565b34801561026c57600080fd5b506040805160206004803580820135601f81018490048402850184019095528484526102b99436949293602493928401919081908401838280828437509497506108c69650505050505050565b005b3480156102c757600080fd5b506102dc600160a060020a0360043516610b24565b6040805160ff9092168252519081900360200190f35b3480156102fe57600080fd5b5061030d60ff60043516610b39565b6040805183151591810191909152811515606082015260808082528551908201528451819060208083019160a084019189019080838360005b8381101561035e578181015183820152602001610346565b50505050905090810190601f16801561038b5780820380516001836020036101000a031916815260200191505b50838103825286518152865160209182019188019080838360005b838110156103be5781810151838201526020016103a6565b50505050905090810190601f1680156103eb5780820380516001836020036101000a031916815260200191505b50965050505050505060405180910390f35b34801561040957600080fd5b506102b9610c8a565b34801561041e57600080fd5b50610234610da5565b34801561043357600080fd5b506102b9610dae565b34801561044857600080fd5b506101aa610eb8565b34801561045d57600080fd5b506102dc610f13565b34801561047257600080fd5b5061047b610f1c565b60408051600160a060020a039092168252519081900360200190f35b3480156104a357600080fd5b506040805160206004803580820135601f81018490048402850184019095528484526102b994369492936024939284019190819084018382808284375050604080516020601f89358b018035918201839004830284018301909452808352979a999881019791965091820194509250829150840183828082843750949750610f2b9650505050505050565b34801561053a57600080fd5b506102dc611067565b34801561054f57600080fd5b50610183611075565b34801561056457600080fd5b5061057360ff6004351661107b565b604051808060200188151515158152602001871515151581526020018060200186600160a060020a0316600160a060020a031681526020018560ff1660ff16815260200184815260200183810383528a818151815260200191508051906020019080838360005b838110156105f25781810151838201526020016105da565b50505050905090810190601f16801561061f5780820380516001836020036101000a031916815260200191505b50838103825287518152875160209182019189019080838360005b8381101561065257818101518382015260200161063a565b50505050905090810190601f16801561067f5780820380516001836020036101000a031916815260200191505b50995050505050505050505060405180910390f35b3480156106a057600080fd5b506102b96111f3565b3480156106b557600080fd5b506102b960043561126e565b3480156106cd57600080fd5b50610183611338565b3480156106e257600080fd5b506102b961133e565b3480156106f757600080fd5b506102b961137f565b34801561070c57600080fd5b506101aa6113d5565b34801561072157600080fd5b506102b9611430565b34801561073657600080fd5b506101aa611453565b34801561074b57600080fd5b506101aa6114ae565b34801561076057600080fd5b506101aa600435611509565b6040805160206004803580820135601f81018490048402850184019095528484526102b99436949293602493928401919081908401838280828437509497506115179650505050505050565b60045481565b6002805460408051602060018416156101000260001901909316849004601f810184900484028201840190925281815292918301828280156108415780601f1061081657610100808354040283529160200191610841565b820191906000526020600020905b81548152906001019060200180831161082457829003601f168201915b505050505081565b600d5460ff1681565b600f80548290811061086057fe5b600091825260209182902001805460408051601f60026000196101006001871615020190941693909304928301859004850281018501909152818152935090918301828280156108415780601f1061081657610100808354040283529160200191610841565b60006108d133611642565b60ff8082166000908152602081905260409020600101549192506101009091041615156108fa57fe5b60ff808216600090815260208190526040902060010154161561091957fe5b60095460ff9081166000908152601060205260409020600201546101009004161561094057fe5b60095460ff90811660009081526010602052604090206002015416151560011461096657fe5b60ff8116600090815260208181526040909120835161098d92600290920191850190611a1f565b5060ff8082166000908152602081815260408083206001908101805460ff1916821790556009549094168352601090915290819020905190820180549092829184916002600019918316156101000291909101909116048015610a275780601f10610a05576101008083540402835291820191610a27565b820191906000526020600020905b815481529060010190602001808311610a13575b50509150506040518091039020600019166000808360ff1660ff1681526020019081526020016000206002016040518082805460018160011615610100020316600290048015610aae5780601f10610a8c576101008083540402835291820191610aae565b820191906000526020600020905b815481529060010190602001808311610a9a575b50509150506040518091039020600019161415610b205760ff8181166000908152602081905260409020600301805474ff000000000000000000000000000000000000000019811674010000000000000000000000000000000000000000918290048416600101909316029190911790555b5050565b60016020526000908152604090205460ff1681565b60106020908152600091825260409182902080548351601f60026000196101006001861615020190931692909204918201849004840281018401909452808452909291839190830182828015610bd05780601f10610ba557610100808354040283529160200191610bd0565b820191906000526020600020905b815481529060010190602001808311610bb357829003601f168201915b505050505090806001018054600181600116156101000203166002900480601f016020809104026020016040519081016040528092919081815260200182805460018160011615610100020316600290048015610c6e5780601f10610c4357610100808354040283529160200191610c6e565b820191906000526020600020905b815481529060010190602001808311610c5157829003601f168201915b5050506002909301549192505060ff8082169161010090041684565b6005546000908190819033600160a060020a03908116911614610cac57600080fd5b600d805460ff19166001179055600092508291505b60095460ff61010090910481169083161015610d535760ff828116600090815260208190526040902060030154818516740100000000000000000000000000000000000000009091049091161115610d48575060ff808216600090815260208190526040902060030154740100000000000000000000000000000000000000009004169150805b600190910190610cc1565b60ff811660009081526020819052604090208054610d8691600c9160026000196101006001841615020190911604611a9d565b5060085460ff9091166000908152602081905260409020600401555050565b600b5460ff1681565b60055460009033600160a060020a03908116911614610dcc57600080fd5b6009805460ff9081166000908152601060205260408082206002908101805461010061ff0019909116811790915594549093168252902060019081018054610e2294600694929382161502600019011604611a9d565b50600090505b60095460ff61010090910481169082161015610e8b5760ff811660008181526020818152604080832060018101805460ff19169055815180840192839052848152948452929091529151610e829260029092019190611a1f565b50600101610e28565b6009805460ff198116600160ff9283160182161791829055600a54911610610eb557610eb5610c8a565b50565b6006805460408051602060026001851615610100026000190190941693909304601f810184900484028201840190925281815292918301828280156108415780601f1061081657610100808354040283529160200191610841565b60095460ff1681565b600554600160a060020a031681565b60055460009033600160a060020a03908116911614610f4957600080fd5b610f88836040805190810160405280600181526020017f3b00000000000000000000000000000000000000000000000000000000000000815250611660565b8051610f9c91600e91602090910190611b12565b50610fdc826040805190810160405280600181526020017f3b00000000000000000000000000000000000000000000000000000000000000815250611660565b8051610ff091600f91602090910190611b12565b5050600e5460001901600a5560005b600a548160ff16101561106257600e805460ff831690811061101d57fe5b6000918252602080832060ff85168452601090915260409092209101805461105992919060026000196101006001841615020190911604611a9d565b50600101610fff565b505050565b600954610100900460ff1681565b600a5481565b6000602081815291815260409081902080548251601f60026000196101006001861615020190931692909204918201859004850281018501909352808352909283919083018282801561110f5780601f106110e45761010080835404028352916020019161110f565b820191906000526020600020905b8154815290600101906020018083116110f257829003601f168201915b50505050600183810154600280860180546040805160206101009784161588026000190190931694909404601f8101839004830285018301909152808452969760ff80861698969095049094169550929391929091908301828280156111b65780601f1061118b576101008083540402835291602001916111b6565b820191906000526020600020905b81548152906001019060200180831161119957829003601f168201915b5050505060038301546004909301549192600160a060020a038116927401000000000000000000000000000000000000000090910460ff16915087565b6000806111ff33611642565b60ff8116600090815260208190526040812060040154919350909150811161122357fe5b60ff821660009081526020819052604080822060040182905551600160a060020a0333169183156108fc02918491818181858888f19350505050158015611062573d6000803e3d6000fd5b60055460009033600160a060020a0390811691161461128c57600080fd5b5066038d7ea4c68000810260045560098054600b805460ff191660011790556000600881905561ffff19909116909155600a8190555b600a548160ff161015610b205760ff81166000908152602081905260408120906112ec8282611b6b565b60018201805461ffff19169055611307600283016000611b6b565b5060038101805474ffffffffffffffffffffffffffffffffffffffffff1916905560006004909101556001016112c2565b60085481565b60055433600160a060020a0390811691161461135957600080fd5b600b805460ff19169055600454600954610100900460ff160260085561137d611722565b565b60055433600160a060020a0390811691161461139a57600080fd5b600554604051600160a060020a039182169130163180156108fc02916000818181858888f19350505050158015610eb5573d6000803e3d6000fd5b600c805460408051602060026001851615610100026000190190941693909304601f810184900484028201840190925281815292918301828280156108415780601f1061081657610100808354040283529160200191610841565b60055433600160a060020a0390811691161461144b57600080fd5b61137d611722565b6007805460408051602060026001851615610100026000190190941693909304601f810184900484028201840190925281815292918301828280156108415780601f1061081657610100808354040283529160200191610841565b6003805460408051602060026001851615610100026000190190941693909304601f810184900484028201840190925281815292918301828280156108415780601f1061081657610100808354040283529160200191610841565b600e80548290811061086057fe5b6000600454341015801561152d5750600b5460ff165b151561153557fe5b600954610100900460ff16600090815260208181526040909120835161155d92850190611a1f565b50506009805460ff6101009182900481166000908152602081815260408083206003018054600160a060020a03331673ffffffffffffffffffffffffffffffffffffffff1990911681179091558654869004851684528184206001908101805461ff00199081168917909155885492865293819052918420805460ff1916918790048616919091179055855485810485169091019093169093029190921617909155600454340390811115610b2057604051600160a060020a0333169082156108fc029083906000818181858888f19350505050158015611062573d6000803e3d6000fd5b600160a060020a031660009081526001602052604090205460ff1690565b606061166a611baf565b611672611baf565b600061167d866117b1565b9250611688856117b1565b915061169a838363ffffffff6117d716565b6001016040519080825280602002602001820160405280156116d057816020015b60608152602001906001900390816116bb5790505b509350600090505b8351811015611719576116f96116f4848463ffffffff61184416565b611857565b848281518110151561170757fe5b602090810290910101526001016116d8565b50505092915050565b60055433600160a060020a0390811691161461173d57600080fd5b6009805460ff9081166000908152601060205260408082206002908101805460ff1916600190811790915594549093168252902080546117929360079360001991831615610100029190910190911604611a9d565b50604080516020810191829052600090819052610eb591600691611a1f565b6117b9611baf565b50604080518082019091528151815260209182019181019190915290565b60008082600001516117fb85600001518660200151866000015187602001516118aa565b0190505b8351602085015101811161183d5782516020808601518651918601516001909501946118359291850390910390849084906118aa565b0190506117ff565b5092915050565b61184c611baf565b61183d83838361196a565b606080600083600001516040519080825280601f01601f19166020018201604052801561188e578160200160208202803883390190505b50915060208201905061183d81856020015186600001516119db565b600083818080808080808c8b116119545760208b1161191d5760018b60200360080260020a03196001029550858a511694508a8d8d010393508588511692505b82851461191557838810611902578c8c01985061195a565b87806001019850508588511692506118ea565b87985061195a565b8a8a209150600096505b8a8d0387116119545750898720818114156119445787985061195a565b6001978801979690960195611927565b8c8c0198505b5050505050505050949350505050565b611972611baf565b600061199085600001518660200151866000015187602001516118aa565b602080870180519186019190915280518203855286519051919250018114156119bc57600085526119d2565b8351835186519101900385528351810160208601525b50909392505050565b60005b60208210611a00578251845260209384019390920191601f19909101906119de565b50905182516020929092036101000a6000190180199091169116179052565b828054600181600116156101000203166002900490600052602060002090601f016020900481019282601f10611a6057805160ff1916838001178555611a8d565b82800160010185558215611a8d579182015b82811115611a8d578251825591602001919060010190611a72565b50611a99929150611bc6565b5090565b828054600181600116156101000203166002900490600052602060002090601f016020900481019282601f10611ad65780548555611a8d565b82800160010185558215611a8d57600052602060002091601f016020900482015b82811115611a8d578254825591600101919060010190611af7565b828054828255906000526020600020908101928215611b5f579160200282015b82811115611b5f5782518051611b4f918491602090910190611a1f565b5091602001919060010190611b32565b50611a99929150611be3565b50805460018160011615610100020316600290046000825580601f10611b915750610eb5565b601f016020900490600052602060002090810190610eb59190611bc6565b604080518082019091526000808252602082015290565b611be091905b80821115611a995760008155600101611bcc565b90565b611be091905b80821115611a99576000611bfd8282611b6b565b50600101611be95600a165627a7a723058201e9244679086397122d133a17c5a148684b887c0613e991713d07030a54007f00029",
  "source": "pragma solidity ^0.4.21;\n\nimport './strings.sol';\n\n\ncontract GameFactory{\n\n//TO-DO: Checks equal number questions answers\n\naddress[] public contracts;\naddress public owner = msg.sender;\n\nfunction createGame(\n  uint entryFee,\n  string listQuestions,\n  string listHashedAnswers\n  )\n  public\n  returns(address newContract)\n  {\n\n  Game g = new Game(msg.sender, entryFee, listQuestions, listHashedAnswers);\n  contracts.push(g);\n  return g;\n  }\n}\n\ncontract Game{\n\nusing strings for *; //Arachnid library declaration\n\nstruct Player {\n    string playerName;\n    bool hasGuessed;\n    bool isRegistered;\n    string guess;\n    address playerAddress;\n    uint8 score;\n    uint winnings;\n}\n\nstruct Rounds {\n    string question;\n    string answer;\n    bool roundStarted;\n    bool roundComplete;\n}\n\n//bi-directional mapping, since solidity is not great with arrays\nmapping(uint8 => Player) public players;\nmapping(address => uint8) public getNumFromAddress;\n\n//Game input data, set in constructor\n//Change listQuestions to PRIVATE!!!\nstring public listQuestions;\nstring public listHashedAnswers;\nuint public entryFee;\naddress public owner;\n\nstring public currentAnswer;\nstring public currentQuestion;\nuint public grandPrize;\nuint8 public currentRound;\nuint8 public numPlayers;\nuint public numRounds;\nbool public registrationOpen;\nstring public winnerName;\nbool public gameEnded;\n\n//Make private before deploying\nstring[] public arrayQuestions;\nstring[] public arrayHashedAnswers;\nmapping(uint8 => Rounds) public rounds;\n\nconstructor(address _owner, uint _entryFee, string _listQuestions, string _listHashedAnswers) public {\n  owner = _owner;\n  entryFee = _entryFee;\n  listQuestions = _listQuestions;\n  listHashedAnswers = _listHashedAnswers;\n}\n\nmodifier onlyOwner() {\n    require(msg.sender == owner);\n    _;\n}\n\nfunction convertStringToArray(string inputString, string deliminator) private returns(string[] parts){\n    var s = inputString.toSlice();\n    var delim = deliminator.toSlice();\n    parts = new string[](s.count(delim) + 1);\n    for(uint i = 0; i < parts.length; i++) {\n        parts[i] = s.split(delim).toString();\n    }\n}\n\n/// Create a new game with $(_entryFee) (finney) registration fee\nfunction newGame(uint _entryFeeInFinney) onlyOwner public {\n    entryFee = _entryFeeInFinney * 1e15; //convert from finney to wei\n\n    //reset round data\n    currentRound = 0;\n    registrationOpen = true;\n    grandPrize = 0;\n    numPlayers = 0;\n    numRounds = 0;\n\n    //reset registration (cannot delete a mapping, must delete each element)\n    for (uint8 y = 0; y < numRounds; y++){delete players[y];}\n}\n\n/// Set the questions and answers\nfunction setQuestions(string _questions, string _answers) onlyOwner public {\n    arrayQuestions = convertStringToArray(_questions, \";\");\n    arrayHashedAnswers = convertStringToArray(_answers, \";\");\n    numRounds = arrayQuestions.length-1;\n    for (uint8 y = 0; y < numRounds; y++){\n        rounds[y].question = arrayQuestions[y];\n        }\n}\n\n/// Register using your name and pay the entry fee\nfunction register(string _playerName) payable public {\n    //Check that registration is open\n    assert(msg.value >= entryFee && registrationOpen);\n    // The first player is player 0\n    players[numPlayers].playerName = _playerName;\n    players[numPlayers].playerAddress = msg.sender;\n    players[numPlayers].isRegistered = true;\n\n    // Create lookup of player's number using their address\n    getNumFromAddress[msg.sender] = numPlayers;\n    numPlayers++;\n\n    // Return funds if the player overpayed\n    uint overPayed = msg.value - entryFee;\n    if (overPayed > 0) { msg.sender.transfer(overPayed); }\n}\n\n// Lookup a player's number using their address\nfunction getPlayersFromAddress(address _addressplayer) view private returns (uint8){\n    return getNumFromAddress[_addressplayer];\n}\n\n /// Close registration calculate grand prize, and start the game\nfunction startGame() onlyOwner public {\n    registrationOpen = false;\n    grandPrize = numPlayers * entryFee;\n    startNewRound();\n}\n\nfunction startNewRound() onlyOwner private {\n    rounds[currentRound].roundStarted = true;\n    currentQuestion = rounds[currentRound].question;\n    currentAnswer = \"\";\n}\n\nfunction forceNewRound() onlyOwner public {\n    startNewRound();\n}\n\n/// Make your guesss for the current\nfunction guess(string _guess) public {\n    // Get the players number and require registration\n    uint8 thisPlayer = getPlayersFromAddress(msg.sender);\n    assert(players[thisPlayer].isRegistered);\n\n    // Ensure the player has not guessed twice,\n    // and that someone has not already won this round\n    assert(players[thisPlayer].hasGuessed == false);\n    assert(rounds[currentRound].roundComplete == false);\n    assert(rounds[currentRound].roundStarted == true);\n    players[thisPlayer].guess = _guess;\n    players[thisPlayer].hasGuessed = true;\n\n    // Add points to winner and reveal the correct answer\n    // !WEAKNESS: users could theoretically check answers by checking gas estimates\n    if (keccak256(players[thisPlayer].guess) == keccak256(rounds[currentRound].answer)) {\n        players[thisPlayer].score++;\n    }\n}\n\nfunction endRound() public onlyOwner {\n    rounds[currentRound].roundComplete = true;\n    // Reveal the answer by assigning it to a public variable\n    currentAnswer = rounds[currentRound].answer;\n    //note to dev: Check that the last player will be reset\n    for (uint8 y = 0; y < numPlayers; y++) {\n        players[y].hasGuessed = false;\n        players[y].guess = \"\";\n    }\n    currentRound++; // Iterate to the next round\n    if (currentRound >= numRounds) { endGame(); } //End the game if necessary\n}\n\n// Calculates the winner and assigns the grand prize\nfunction endGame() onlyOwner public {\n    gameEnded = true;\n    uint8 winningScore = 0;\n\n    for (uint8 y = 0; y < numPlayers; y++) {\n        if (players[y].score > winningScore) {\n            winningScore = players[y].score;\n            uint8 winnerNum = y;\n        }\n    }\n    winnerName = players[winnerNum].playerName;\n    players[winnerNum].winnings = grandPrize;\n}\n\n// Requires the winner to withdraw their prize, see why here:\n// https://blog.ethereum.org/2016/06/10/smart-contract-security/\nfunction withdrawWinnings() public {\n    uint8 thisPlayer = getPlayersFromAddress(msg.sender);\n    uint winningSum = players[thisPlayer].winnings;\n    assert(winningSum > 0);\n    players[thisPlayer].winnings = 0;\n    msg.sender.transfer(winningSum);\n}\n\n// Return all funds to owner if things go wrong\nfunction reset() public onlyOwner {\n    owner.transfer(this.balance);\n}\n\n}\n",
  "sourcePath": "/home/linux/Documents/Repo/hq-on-chain/contracts/GameFactory.sol",
  "compiler": {
    "name": "solc",
    "version": "0.4.23+commit.124ca40d.Emscripten.clang"
  },
  "schemaVersion": "2.0.0",
  "updatedAt": "2018-04-28T21:03:20.945Z"
}